:100000000000002059050000953400009D340000D8
:10001000A5340000AD340000B5340000000000003D
:10002000000000000000000000000000C905000002
:10003000BD340000000000006F060000CF06000085
:1000400025330000353300004533000055330000F0
:1000500065330000753300008533000095330000E0
:10006000A5330000B5330000C5330000D5330000D0
:10007000E5330000F53300000534000015340000BE
:1000800025340000C5340000CD340000D534000014
:10009000DD340000E5340000ED340000F5340000EC
:1000A000FD340000053500000D3500001535000059
:1000B0001D350000253500002D35000035340000C9
:1000C00035350000453400003D3500005534000052
:1000D00045350000653400004D3500005535000001
:1000E0005D350000653500006D3500007535000098
:1000F0007D350000853500008D3500009535000008
:100100006905000069050000690500006905000037
:100110009D350000A5350000AD350000B535000067
:10012000BD350000C5350000CD350000D5350000D7
:10013000DD350000E5350000ED350000F535000047
:10014000FD35000005360000753400000D36000056
:1001500085340000153600001D36000025360000ED
:100160002D360000353600003D36000045360000D3
:100170004D360000553600005D3600006536000043
:100180006D36000069050000690500006905000082
:1001900069050000690500006905000069050000A7
:1001A0006905000069050000690500006905000097
:1001B0006905000069050000690500006905000087
:1001C0006905000069050000690500006905000077
:1003F000690500006905000069050000FFFFFFFFB7
:10040000FFFFFFFFFFFFFFFFFFFFFFFFFEFFFFFFFD
:10044000044B05481B1A062B02D9044B03B118476D
:10045000704700BF130A0020100A002000000000AF
:1004600005490648091A891001EBD171491002D0DB
:10047000034B03B118477047100A0020100A0020F0
:100480000000000010B5064C237843B9FFF7D8FFF1
:10049000044B13B10448AFF300800123237010BD57
:1004A000100A00200000000060A4000008B5084BFE
:1004B0001BB108490848AFF300800848036813B926
:1004C000BDE80840CCE7064B002BF9D09847F7E78A
:1004D00000000000140A002060A400000C0A0020A4
:1004E00000000000154B002B08BF134B9D46A3F5E1
:1004F000803A00218B460F461348144A121A06F020
:10050000FDFE0F4B002B00D098470E4B002B00D068
:1005100098470020002104000D000D48002802D05B
:100520000C4806F0B7FB06F0F9FB2000290003F0A9
:10053000DBFA06F0BBFB00BF000008000000002053
:100540000000000015380000100A0020C43E002002
:10055000956C0000CD6C000072B602F009FB02F051
:10056000A1FA62B6FFF7BEFFFFF7FEBF80F309886E
:100570007047EFF309807047684680F309885A484E
:100580000078C00714BF0220032080F3148870474E
:10059000DFF858C1EFF305831B0618BF6047EFF380
:1005A0001483DB0708BF604700DF7047DFF840C1F6
:1005B000EFF305831B0618BF6047EFF31483DB07D7
:1005C00008BF604700DF7047EFF30980816911F8C9
:1005D000021CE1BB90E80F1010B5E047BDE81040E9
:1005E000EFF3098C8CE80700424B93E80600914238
:1005F00008BF704741B91EF0100F16D13E49086878
:1006000020F00100086010E01EF0100F06BF2CED76
:10061000108A0120002081F825002CE9F00FC1F894
:1006200028C00CB404F0B6FB0CBC1A60D2F828C089
:10063000BCE8F00F92F8250000280EBF6FF0020E04
:100640006FF0120EBCEC108A8CF30988704710B55D
:100650002A4A1268914209D8294C54F8214090E85E
:100660000F10A047EFF3098C8CE80F0010BD10B5F8
:1006700004F014FBBDE810401E4B93E806009142C5
:1006800008BF7047EFF3098C1EF0100F06BF2CED6A
:10069000108A0120002081F825002CE9F00FC1F814
:1006A00028C00CB404F076FB0CBC1A60D2F828C049
:1006B000BCE8F00F92F8250000280EBF6FF0020E84
:1006C0006FF0120EBCEC108A8CF30988704710B5DD
:1006D00004F042FBFFF7CEBF10B504F03BFB04F083
:1006E0003BFBFFF7C7BF0000209A00000D4600004B
:1006F00029460000843E002034EF00E000000000A6
:10070000FCFFFFFF4FF0FF3C06E000BF4FF0010C85
:1007100002E000BF4FF0010C4DF804CD4FEA410C50
:100720007FEA6C5C4FEA430C18BF7FEA6C5C1BD01D
:1007300001B050EA410C0CBF52EA430C91EA030F9E
:1007400002BF90EA020F0020704710F1000F91EAFB
:10075000030F58BF994208BF90422CBFD8176FEAC9
:10076000E37040F0010070474FEA410C7FEA6C5C97
:1007700002D150EA013C07D14FEA430C7FEA6C5C9E
:10078000D6D152EA033CD3D05DF8040B704700BFCA
:100790008446104662468C461946634600E000BF18
:1007A00001B5FFF7B7FF002848BF10F1000F01BDEA
:1007B0004DF808EDFFF7F4FF0CBF012000205DF8B5
:1007C00008FB00BF4DF808EDFFF7EAFF34BF01203A
:1007D00000205DF808FB00BF4DF808EDFFF7E0FFD3
:1007E00094BF012000205DF808FB00BF4DF808ED24
:1007F000FFF7CEFF94BF012000205DF808FB00BF8B
:100800004DF808EDFFF7C4FF34BF012000205DF86C
:1008100008FB00BF53B94AB9002908BF00281CBF14
:100820004FF0FF314FF0FF3001F0ECB8ADF1080CA4
:100830006DE904CE00F006F8DDF804E0DDE90223FE
:1008400004B070472DE9F0478C460E460446089DDB
:10085000002B50D18A4217466CD9B2FA82FEBEF103
:10086000000F0BD0CEF1200420FA04F401FA0EF6AA
:1008700044EA060C02FA0EF700FA0EF44FEA1749A2
:10088000220CBCFBF9F01FFA87F809FB10C642EAFC
:10089000064600FB08F3B34209D9F61900F1FF320E
:1008A00080F02281B34240F21F8102383E44F61AA2
:1008B000A2B2B6FBF9F309FB136642EA064403FB56
:1008C00008F8A04509D9E41903F1FF3280F00A8144
:1008D000A04540F20781023B3C44C8EB040443EAD4
:1008E00000400021002D62D024FA0EF400232C6079
:1008F0006B60BDE8F0878B4207D9002D55D00021F1
:1009000085E841000846BDE8F087B3FA83F1002985
:1009100040F09080B34202D3824200F2F880841A01
:1009200066EB03060120B446002D40D085E8101088
:10093000BDE8F08712B90127B7FBF2F7B7FA87FED7
:10094000BEF1000F35D1F31B4FEA17481FFA87FCA1
:100950000121B3FBF8F0220C08FB103642EA0646F0
:100960000CFB00F3B34207D9F61900F1FF3202D2B3
:10097000B34200F2CE801046F61AA2B2B6FBF8F3EC
:1009800008FB136642EA06440CFB03FCA44507D9A6
:10099000E41903F1FF3202D2A44500F2B5801346F8
:1009A000CCEB040443EA00409CE729462846BDE816
:1009B000F087CEF1200106FA0EF307FA0EF720FABF
:1009C00001F94FEA1748CE4049EA0309B6FBF8FAA5
:1009D0004FEA194408FB1A661FFA87FC44EA0643EB
:1009E0000AFB0CF29A4200FA0EF40AD9DB190AF15A
:1009F000FF3180F087809A4240F28480AAF1020A97
:100A00003B449B1A1FFA89F9B3FBF8F108FB113339
:100A100049EA034301FB0CF69E4207D9DB1901F1B9
:100A2000FF326BD29E4269D902393B449B1B41EA9B
:100A30000A418EE7C1F1200E22FA0EF48B402343C7
:100A400020FA0EF706FA01F44FEA134C26FA0EF6D6
:100A50003C43B6FBFCF9270C0CFB19661FFA83F824
:100A600047EA064609FB08F7B74202FA01F200FA24
:100A700001FA08D9F61809F1FF3041D2B7423FD93F
:100A8000A9F102091E44F61BA0B2B6FBFCF40CFB54
:100A9000146640EA064704FB08F8B84507D9FF1872
:100AA00004F1FF3028D2B84526D9023C1F4444EA5D
:100AB0000940C8EB0707A0FB02894F4544464E4654
:100AC00014D329D065B3BAEB040367EB060707FA22
:100AD0000EFECB40CF404EEA030385E8880000219C
:100AE000BDE8F0871346F8E61046E0E6B8EB0204EE
:100AF00069EB03060138E5E70446D8E7114695E7B8
:100B00008146C0E78A467CE7023B3C4448E708460A
:100B10000AE702383E442FE7C245E7D33E46D1E715
:100B20002946BDE8F08700BF03685A004CBF43F078
:100B3000004323F000431844704700BF61B32DE920
:100B4000F84F01F1FF3A90460646D146002707EBE1
:100B5000090404EBD4746410E50071190846FFF72A
:100B6000E3FFA245834605F10800304409D0FFF7B2
:100B7000DBFFC34500F1FF3005D8404509D2671CB3
:100B8000E5E7C34505D9A74202D004F1FF39DEE706
:100B900000210846BDE8F88F08467047012807D0B5
:100BA000022807D0044B00280CBF184600207047CD
:100BB0000248704702487047A9120000AD120000B9
:100BC000B112000030B5244B83B004468D1E7BB3B8
:100BD00001A92846AFF3008020B301992A46FFF708
:100BE000ADFF0146F0B1FFF79FFF4B68A064012BFA
:100BF00012D0002B01F1040020DBFFF795FF00234A
:100C0000E06423650368002B1CDBFFF78DFF0023E6
:100C10002061184603B030BD002323610523184628
:100C200003B030BD002323610923184603B030BD53
:100C30000A490B48091AC9100191CFE70123E06462
:100C40002365DFE7C3F30360FFF7A8FF00282061F7
:100C500014BF00230923DCE70000000060A80000A7
:100C600028A600000368DA0710B5044606D49B07DF
:100C700000F1480009D500F059FC2368590709D54F
:100C80001A070ED5DB0613D510BD00F047FC23680C
:100C90005907F5D404F1D00000F050FC23681A077E
:100CA000F0D404F5A87000F051FC2368DB06EBD407
:100CB00004F5E870BDE8104000F08CBC03680BB18F
:100CC000184470471846704709207047704700BFA6
:100CD00070B504460D4608E02B6C63612A46236913
:100CE000214601209847082808D1296C2046FFF7A3
:100CF00069FF06460028EFD005F0A6FF0728FBD1C4
:100D00003046296CFFF7E2FF281D00F0FBFB00BF17
:100D10002DE9F0470C1D064617460FCCADF5727D48
:100D200003AD0FC50FCC0FC50FCC0FC594E80F0056
:100D300002ACD6F80C80D6F8189085E80F00002396
:100D40003046216C2360FFF73DFF002F054614BF9E
:100D50000A2709277DB1A36B47F010018DE8100227
:100D60003246636401203346C04778BB28460DF500
:100D7000727DBDE8F087236C73614FF4F0722146F9
:100D80007AA800F041FE33697AAA3146384698477E
:100D9000889B82468DE810023946636432463346AA
:100DA0000120C04790B94FF4F0727AA9204600F0B4
:100DB0002BFEBAF1080F06D1216C3046FFF702FF77
:100DC00009270546C6E7BAF1070F04D009200DF53B
:100DD000727DBDE8F0872846216CFFF777FF03A8F6
:100DE00000F090FB406C7047F0B5CB6B0B640E1DB0
:100DF0000F4604460FCEF9B001AD0FC50FCE0FC59B
:100E00000FCE0FC596E80F004FF0FF3685E80F00B4
:100E1000009606E023696A46214698470828054659
:100E200008D110992046FFF7CDFE0028F2D0092006
:100E300079B0F0BD6846FFF715FF062DF7D13946AA
:100E40002046FFF745FF00BF30B4DD6BC160826113
:100E500019461D64002230BC5AE700BF70B5C66851
:100E600043690B6426B10122FFF752FF05F0ECFE47
:100E700003690A4604460D460146022098470728A2
:100E800007D0082803D129462046FFF721FF05F0A7
:100E9000DBFE3046296CFFF719FF281D00F032FBFE
:100EA000C2681AB1CA6B0A64002231E79CE700BF2E
:100EB000704700BF836813B101460120184770478F
:100EC00000B5042907D8DFE801F003090609090085
:100ED0000BB90F2A05D902205DF804FB01205DF84B
:100EE00004FB00EB820218465368019A13605DF818
:100EF00004FB00BF10B584B0002303AC0A46009485
:100F00001946FFF7DDFF039804B010BD00B50429B2
:100F100007D8DFE801F00309060909000BB90F2A19
:100F200005D902205DF804FB01205DF804FB01995E
:100F300000EB82020968516018465DF804FB00BFAF
:100F400010B584B004AC002344F8042D0A46009484
:100F50001946FFF7DBFF04B010BD00BFF0B5D36B3F
:100F60001364151D07460E460FCDADF50F7D17AC6A
:100F70000FC40FCD0FC40FCD0FC495E80F004FF075
:100F8000FF3584E80F00169510E016A8FFF7D8FF8C
:100F9000314616A8B84716AA694678B9049B0820B6
:100FA0009847052804460AD0092807D0269968469C
:100FB000FFF708FE6A460C210028E6D0092416A88F
:100FC000FFF750FE20460DF50F7DF0BD2DE9F04FE7
:100FD0000D46C96C8BB00C1D0968079191460894A9
:100FE00000F0030B1E46002B64D109020323079176
:100FF0008DF825608DF824302B6DBBF1020F08BFF2
:10100000AC6B13F0010343D100F00800C2B20392AD
:1010100001932768002F3DD0022E47D02788B4F8CF
:1010200002800434AB6C28F0010A0F2148469A4430
:10103000FFF760FF824537D827F001039A445045F7
:101040002CBF002001204FEA480808F0020807F0F2
:10105000010748EA0708B8F1010F41D038D3B8F1C9
:10106000020F1DD1236823F000420292BBF1000F52
:1010700079D130B10399002900F08180002A00F075
:10108000A880002B79DB029B013304EB8304C0E7CB
:1010900000230193022E40DDFFF716FE002842D008
:1010A00009200BB0BDE8F08F0020CCE7D4F8048015
:1010B0000834B7E7022B9FDC0B0CDAB209048DF879
:1010C0002530022304EB820407918DF8243093E746
:1010D000BBF1000F02D0002840F0B080043498E744
:1010E000BBF1000F26D1B0B194E80C00991C4FEA77
:1010F000D272D5D005F158010133069100F09480E9
:10110000201DFFF7DBFD06AB01462846AFF300804C
:10111000002840F0B88008347BE707A9484600F073
:10112000F3FA0028BCD1019B002B5CD108200BB046
:10113000BDE8F08F0D2148462F6AFFF7DBFE87429E
:10114000E9D1AB6A9C42E6D12046FFF7EDFC0F21C6
:1011500002464846FFF7F4FE48462A460021FFF7BC
:10116000EFFE07209DE70D2148462F6AFFF7C2FEDC
:10117000874248D02368002B85DA043483E7029B3A
:101180003BB305F15803271DCDF810B0DDF80C80F6
:10119000DDF808A00596A3461C4602E0B245B0461D
:1011A00016D038460694FFF789FD06AB01460022AB
:1011B0002846AFF3008008F1010604370028EDD07F
:1011C000029B059E43455C46DDF810B0D2D100E09D
:1011D0005C4648460D21FFF78DFE069B2862AC62F7
:1011E0006B6206205DE70F214846FFF783FE0E2164
:1011F00002464846FFF7A4FE48462A4A0F21FFF759
:101200009FFE07204DE7AB6A9C42B3D10422002722
:10121000A3180299A962EF622A636B632368BB4239
:101220001FDB012301932EE748460D21FFF762FEE5
:101230002862069B6B62AC62062032E72046FFF70D
:1012400073FC04340646AC632846AFF300800028E4
:101250003FF426AF484632460F21FFF771FE0720C4
:101260001FE70846013004EB8000FFF75DFC0F210B
:1012700002464846FFF764FE48462A463946FFF7CD
:101280005FFE07200DE707460D214846FFF732FEB7
:10129000022F2862CDD12B46069A43F82C2F6B6281
:1012A000C9E700BF0000000000238FE601238DE6A0
:1012B00002238BE6F0B50446C5B004290DD8DFE85B
:1012C00001F057030C310F00012B4FEA124695B283
:1012D00066D17219102A40F29F80022045B0F0BDFD
:1012E000002BFAD1102AF8D82368D80600F1C9805B
:1012F00022AE3046019200F077F9A06B019A0023EC
:10130000012505FA03F1114203D0016846F82310C4
:1013100004300133042BF4D1A063304600F05AF9B5
:101320000020DBE7032BD8D1150C97B2EB19102B5B
:10133000D3D823681E0700F1B88022AE30467F0064
:1013400000F026F906EBC5027B1EA56B57B1043AE7
:10135000294651F8040B42F8040F013B581CF8D100
:1013600005EB87053046A56300F0F0F80020B5E7EF
:10137000002BB2D1A56B97B2201D012606FA03F10E
:10138000394203F1010302D0296801600435102BB2
:1013900000F10400F2D112F400503BD1A5639DE7A7
:1013A000052B9AD17719202F97D80F2E65D92F4664
:1013B000002D48D12A460027002AA06B71DD00EBE2
:1013C000C202014644A800EBC6008C3851F8045B09
:1013D00040F8045F9142F9D1084697B1102E324689
:1013E00044A938BF102201EBC202A2F5C4727900F1
:1013F000043A00EB810150F8045B42F8045F81423B
:10140000F9D1012B47D00F2EA16332D917B102A811
:1014100000F094F8002061E70F2E3FF65EAF002742
:101420002268D1070DD522F00101052B216001931F
:10143000204652D022F0030240F8482B00F072F808
:10144000019B002F51D02268510736D4012B3ED08A
:101450000F2E06D822A8019300F06CF8019B002FF4
:10146000A8D002A8019300F06DF8019BC6F110020C
:10147000A2E722A800F05AF8C8E7102FCFD9103FF2
:10148000CEE723F01003236004F5E870019200F02A
:10149000ABF8019A2CE70431A16322A800F03EF8D2
:1014A000B8E7002F9AD10146ABE723F00803236089
:1014B00004F5A87000F06CF83FE7204622F0040223
:1014C00040F8D02B019300F03DF8019BBEE722A825
:1014D000019300F027F8019BC8E741F0020140F8B2
:1014E000481B00F027F8019BABE7012B03D00F2E20
:1014F0003FF660AFAEE722A8019300F013F8019B1E
:1015000058E700BF00F1340191E838009C46A64638
:101510004CF8045D90E8FF0FE54600BD90EC210B10
:10152000704700BF80EC210B704700BF90EC200B90
:10153000704700BF80EC200B704700BFD0EC200B41
:10154000704700BFC0EC200B704700BFF0EC0201F9
:10155000F0EC0211F0EC0221F0EC0231F0EC02416F
:10156000F0EC0251F0EC0261F0EC0271F0EC02815F
:10157000F0EC0291F0EC02A1F0EC02B1F0EC02C14F
:10158000F0EC02D1F0EC02E1F0EC02F1704700BFA8
:10159000E0EC0201E0EC0211E0EC0221E0EC0231AF
:1015A000E0EC0241E0EC0251E0EC0261E0EC02719F
:1015B000E0EC0281E0EC0291E0EC02A1E0EC02B18F
:1015C000E0EC02C1E0EC02D1E0EC02E1E0EC02F17F
:1015D000704700BFB0FC0181B0FC0191B0FC01A1DB
:1015E000B0FC01B1704700BFA0FC0181A0FC0191DB
:1015F000A0FC01A1A0FC01B1704700BFEC4600B502
:101600002DE900502DE9FF1F4FF000032DE90C00DC
:1016100001A9FFF7E9FBDDF840E012B0704700BF19
:10162000EC4600B52DE900502DE9FF1F4FF00003F7
:101630002DE90C0001A9FFF711FCDDF840E012B024
:10164000704700BFEC4600B52DE900502DE9FF1FA3
:101650004FF000032DE90C0001A9FFF721FCDDF894
:1016600040E012B0704700BFEC4600B52DE90050D5
:101670002DE9FF1F4FF000032DE90C0001ABFFF730
:10168000E3FBDDF840E012B0704700BFEC4600B568
:101690002DE900502DE9FF1F4FF000032DE90C004C
:1016A00001AAFFF75BFCDDF840E012B0704700BF15
:1016B000037A1BB9437A43B9B02070475A1E0368B6
:1016C00002721A020260180E70474268013B10B4A1
:1016D000437213680321141D01721A0244600260F0
:1016E0005DF8044B180E704700B585B003AA0023BF
:1016F000009219460C22FFF7E3FB039805B05DF852
:1017000004FB00BFF0E700BF2DE9F043064685B0BB
:101710000D464FF000082846FFF7CAFFB0280446E0
:1017200000F0B48020F07F0313F0FF0320D000F01E
:10173000F003802B7AD0902B35D0A02B48D0B02B43
:101740005CD0C02B00F0898000F0F803D02B0BD1C7
:1017500000F00702013242F4002205230121304645
:10176000FFF7A8FD0028D6D0092005B0BDE8F0831A
:101770000DF10C0919468700CDF800900D22304676
:10178000FFF79EFBFFB2039BCDF800900437600685
:101790004CBFDF1BFF18002319460D22304603976C
:1017A000FFF7B4FBB7E700F00D030D2BDCD003AF60
:1017B000002300F00F02194600973046FFF780FB28
:1017C0000023009719460D223046FFF79FFBA2E742
:1017D000C2434FF47F6302F0070243FA02F20107AB
:1017E00002EA03024FF0000348BF42F48042194668
:1017F0003046FFF75FFD0028B6D18CE7B1284AD00C
:10180000B22853D0B32800F0818000F0FC03B42B41
:10181000AAD000F007020132012342F40022194647
:101820003046FFF747FD00289ED174E72846FFF7B2
:101830003FFF24022043B0F5004F95D00401002360
:10184000A2B219463046FFF735FD00288CD114F4BA
:10185000004F18BF4FF001085DE7C62862D0C728C7
:101860006CD000F0F803C02B7BD0C82800F091802A
:10187000C9287FF479AF2846FFF71AFF020300F06A
:101880000F0002F470220130024366E7B8F1000F46
:101890006ED0002069E72846FFF70AFF02460028BD
:1018A0003FF462AF10F0F003B9D05DE700230DF113
:1018B0000C090D221946CDF800903046FFF700FBC9
:1018C0002846FFF7F5FE02064FF002040CD5039BF5
:1018D00000F07F00A040034428460393FFF7E8FE92
:1018E000030604F10704F2D4039BCDF8009000F046
:1018F0007F0000FA04F203F5017400231444194632
:101900000D2230460394FFF701FB04E72846FFF75A
:10191000CFFE010300F00F0001F47021421C0123EF
:101920000A437CE72846FFF7C3FE010300F00F00DF
:1019300001F47021421C03230A4370E72846FFF795
:10194000B7FE024600283FF40FAF10F0F0037FF41B
:101950000BAF04213046FFF7ADFC00287FF404AF45
:10196000D9E600F00F020132032342F4202256E7A9
:1019700003AC43460E22414600943046FFF7A0FADE
:101980000094304643460F224146FFF7BFFA4046D7
:10199000EBE62846FFF78CFE00F0F00200F00F03A4
:1019A0001032013343EA0232D7E600BF10B5C36CF0
:1019B00084B05A6803208DF80C00DC798DF80D4056
:1019C00012020833084601A901920293FFF79CFE18
:1019D00004B010BD08B5FFF795FE806C08BD00BFD0
:1019E00008B5FFF78FFEC36CD87903EB8000083091
:1019F00008BD00BF08B505F027F900BF08B5FFF71F
:101A0000F9FF00BF704700BF844641EA000313F0AE
:101A100003036DD1403A41D351F8043B40F8043BF5
:101A200051F8043B40F8043B51F8043B40F8043BB8
:101A300051F8043B40F8043B51F8043B40F8043BA8
:101A400051F8043B40F8043B51F8043B40F8043B98
:101A500051F8043B40F8043B51F8043B40F8043B88
:101A600051F8043B40F8043B51F8043B40F8043B78
:101A700051F8043B40F8043B51F8043B40F8043B68
:101A800051F8043B40F8043B51F8043B40F8043B58
:101A900051F8043B40F8043B403ABDD2303211D3F8
:101AA00051F8043B40F8043B51F8043B40F8043B38
:101AB00051F8043B40F8043B51F8043B40F8043B28
:101AC000103AEDD20C3205D351F8043B40F8043BF8
:101AD000043AF9D2043208D0D2071CBF11F8013BF6
:101AE00000F8013B01D30B8803806046704700BFBC
:101AF000082A13D38B078DD010F003038AD0C3F1CB
:101B00000403D21ADB071CBF11F8013B00F8013BAC
:101B100080D331F8023B20F8023B7BE7043AD9D36B
:101B2000013A11F8013B00F8013BF9D20B78037040
:101B30004B7843708B7883706046704700000000DC
:101B400001F0FF01102A2BDB10F0070F08D010F86E
:101B5000013B013A8B422DD010F0070F42B3F6D172
:101B6000F0B441EA012141EA014122F007047FF08B
:101B700000070023F0E80256083C85EA010586EAE2
:101B8000010685FA47F5A3FA87F586FA47F6A5FA1E
:101B900087F68EB9EED1F0BC01F0FF0102F007022A
:101BA00032B110F8013B013A83EA010313B1F8D1D5
:101BB0000020704701387047002D06BF35460338B6
:101BC000073815F0010F07D1013015F4807F02BFEF
:101BD000013015F4C03F0130F0BC0138704700BF40
:101BE00000000000000000000000000000000000F5
:101BF00000000000000000000000000000000000E5
:101C000090F800F06DE9024520F007016FF0000C3C
:101C100010F0070491F820F040F049804FF00004E4
:101C20006FF00700D1E9002391F840F000F10800BF
:101C300082FA4CF2A4FA8CF283FA4CF3A2FA8CF3F7
:101C40004BBBD1E9022382FA4CF200F10800A4FA5E
:101C50008CF283FA4CF3A2FA8CF3E3B9D1E90423B2
:101C600082FA4CF200F10800A4FA8CF283FA4CF3E9
:101C7000A2FA8CF37BB9D1E9062301F1200182FAA3
:101C80004CF200F10800A4FA8CF283FA4CF3A2FAA9
:101C90008CF3002BC6D0002A04BF04301A4612BAB7
:101CA000B2FA82F2FDE8024500EBD2007047D1E9BA
:101CB000002304F00305C4F100004FEAC50514F049
:101CC000040F91F840F00CFA05F562EA05021CBF1A
:101CD00063EA050362464FF00004A9E780B590B0BF
:101CE00000AF78600B46FB70FB78002B27D107F123
:101CF000240300221A605A609A60DA601A615A61FD
:101D00002D4A7B6852F833307B62012387F82830F4
:101D1000012387F829304FF0FF333B6307F1240399
:101D2000184604F04DF8244A7B68DB001344012276
:101D30001A717B68DB00204A1344FB6336E0FB78B2
:101D4000012B31D107F10C0300221A605A609A600E
:101D5000DA601A615A61184A7B6852F83330FB60C6
:101D600001233B754FF0FF33BB6107F10C031846AD
:101D700004F09CF8104A7B68DB00134402221A71BD
:101D80007B68292B0AD97B682C2B07D80A4A7B68E9
:101D900052F833300121184604F0C0F87B68DB00AC
:101DA000054A1344FB6301E00023FB63FB6B184609
:101DB0004037BD4680BD00BF0000002080B586B022
:101DC00000AF78600B46FB707B687B617B69002B02
:101DD0002FD07B691B79022B2BD17B691B681B0AD7
:101DE000DBB23B617B691B68DBB2FB603B69012BAB
:101DF00005D1FB68162B08D0FB68152B05D03B6975
:101E0000042B0FD1FB681A2B0CD17B691A68FB7865
:101E1000012B14BF01230023DBB21946104604F046
:101E20007DF806E07B691B68FA781146184604F0D5
:101E300075F800BF1837BD4680BD00BF80B485B0BF
:101E400000AF78607B68FB60FB68002B0ED0FB68FE
:101E50001B79022B03D1FB6800221A7106E0FB6894
:101E60001B79012B02D1FB6800221A7100BF1437C5
:101E7000BD465DF8047B704780B584B000AFF86064
:101E8000B9607A60BB680F2B06D90A4B0A4A40F248
:101E9000E2210A4804F0E0FEFA68BB685B011344E3
:101EA00003F5805310337A681A6000BF1037BD46BF
:101EB00080BD00BFD4970000789900000098000012
:101EC00080B584B000AFF860B9601346FB71BB68A1
:101ED0000F2B06D90C4B0D4A4FF460710C4804F0DF
:101EE000BBFEBB685B0103F580531833FA681344EB
:101EF000043303F104735B010433FA7992B21A805C
:101F000000BF1037BD4680BDD497000094990000F3
:101F10000098000090B587B000AFF8607A603B6031
:101F20000B46FB7200237B61FB681B68022B00F0F1
:101F30004D81032B00F0DF81012B00F09580954B44
:101F400000221A60934B1B68934A52F82330002BEF
:101F500041D1904B1B68914ADB00134400229A71D7
:101F60008C4B1B688D4ADB00134400221A71894B8D
:101F70001B688A4ADB00134400225A71854B1B6898
:101F8000864A4FF4165142F83310824B1B681846AC
:101F900001F0FEF87F4B1B689B01814A1344814985
:101FA000184603F02BFE7B4B18687A4B1A681346D1
:101FB0001B019B1A9B007C4A9918764B1B68DB001F
:101FC000764A13441A4604F001FC724B1B68724AAD
:101FD000012142F823107B68B3F1FF3F20D06D4B05
:101FE0001A68724913469B0013449B000B4402225B
:101FF0001A60684B1A686D4913469B0013449B0096
:102000000B4408336A4A1A60624B1A6867491346E0
:102010009B0013449B000B440C33664A1A6015E086
:102020005C4B1A68614913469B0013449B000B44A8
:10203000043300221A60574B1A685C4913469B0010
:1020400013449B000B4410335B4A1A60514B1B68CE
:10205000504A1268594941F823204E4B1B689B0097
:10206000564A13447B61F5E14A4B01221A60494B01
:102070001B68494A52F82330002B41D1454B1B685D
:10208000464ADB00134400229A71424B1B68434AC4
:10209000DB00134400221A713E4B1B683F4ADB00F1
:1020A000134400225A713B4B1B683C4A4FF4E13108
:1020B00042F83310374B1B68184601F069F8354B6E
:1020C0001B689B01364A13443649184603F096FDB7
:1020D000304B18682F4B1A6813461B019B1A9B0044
:1020E000314A99182B4B1B68DB002C4A13441A46C3
:1020F00004F06CFB274B1B68274A012142F8231090
:102100007B68B3F1FF3F20D0224B1A682749134662
:102110009B0013449B000B4400221A601D4B1A685D
:10212000224913469B0013449B000B440833244A66
:102130001A60184B1A681D4913469B0013449B00F4
:102140000B440C331F4A1A6015E0124B1A681749EA
:1021500013469B0013449B000B44043300221A6077
:102160000C4B1A68114913469B0013449B000B4407
:102170001033154A1A60074B1B68064A12680F494C
:1021800041F82320034B1B689B000C4A13447B61DE
:1021900060E100BF000E0020040E0020200D002092
:1021A000380A002078010020B80B0020580D0020CC
:1021B000300A0020340A0020380A0020E80D0020F0
:1021C000380A0020380A0020380A0020824B0222F8
:1021D0001A60814B1B68814A52F82330002B41D191
:1021E0007D4B1B687E4ADB00134400229A717A4BB8
:1021F0001B687B4ADB00134400221A71764B1B6874
:10220000774ADB00134400225A71734B1B68744AEF
:102210004FF4E13142F833106F4B1B68184600F061
:10222000B7FF6D4B1B689B016E4A13446E491846FD
:1022300003F0E4FC684B1868674B1A6813461B01EF
:102240009B1A9B00694A9918634B1B68DB00644A20
:1022500013441A4604F0BAFA5F4B1B685F4A012127
:1022600042F823107B68B3F1FF3F20D05A4B1A6825
:102270005F4913469B0013449B000B4400221A60E5
:10228000554B1A685A4913469B0013449B000B4454
:102290000833584A1A60504B1A68554913469B0038
:1022A00013449B000B440C33534A1A6015E04A4B0D
:1022B0001A684F4913469B0013449B000B44043398
:1022C00000221A60444B1A68494913469B00134484
:1022D0009B000B441033494A1A603F4B1B683E4A2F
:1022E0001268474941F823203B4B1B689B00444A36
:1022F00013447B61AEE0384B03221A60364B1B68F7
:10230000364A52F82330002B41D1334B1B68344AF4
:10231000DB00134400229A712F4B1B68304ADB000C
:10232000134400221A712C4B1B682D4ADB00134406
:1023300000225A71284B1B68294A4FF4E13142F8B8
:102340003310254B1B68184600F022FF224B1B68F8
:102350009B01244A13442449184603F04FFC1E4BAA
:1023600018681D4B1A6813461B019B1A9B001F4AD5
:102370009918194B1B68DB00194A13441A4604F0DC
:1023800025FA154B1B68154A012142F823107B687A
:10239000B3F1FF3F3AD0104B1A68154913469B0022
:1023A00013449B000B4400221A600B4B1A6810491F
:1023B00013469B0013449B000B440833114A1A60D8
:1023C000054B1A680A4913469B0013449B000B44B3
:1023D0000C330D4A1A602FE0000E0020040E00207E
:1023E000200D0020380A002078010020B80B0020C2
:1023F000580D0020380A0020380A0020380A002032
:10240000E80D0020380A0020380A00202A4B1A68FC
:102410002A4913469B0013449B000B4404330022BB
:102420001A60254B1A68254913469B0013449B00EC
:102430000B441033224A1A601F4B1B681E4A126855
:10244000204941F823201C4B1B689B001D4A134464
:102450007B6100BF7B68B3F1FF3F28D0164B1A6841
:1024600013461B019B1A9B002833174A1344181D5F
:10247000114B1B681A46154903F0FEFB0E4B1868FA
:102480000D4B1A680D4913469B0013449B000B44E7
:1024900008331C68084B1A68084913469B0013440C
:1024A0009B000B441B681A46214600F08DF87B699F
:1024B00018461C37BD4690BD000E0020580D002068
:1024C000380A0020E80D0020B80B00207526000017
:1024D00080B483B000AF78603960002318460C37B1
:1024E000BD465DF8047B704780B483B000AF786070
:1024F000084611461A460346FB700B46BB7013464E
:102500007B70002318460C37BD465DF8047B70478E
:1025100080B586B000AFF860B9607A60FB683B6157
:102520003B69002B33D03B691B681F4AD35C012BEE
:102530002DD13B691B681D4A52F82330012B0FD166
:102540003B691A681A4913469B0013449B000B44CD
:1025500008331B687A681946B868FFF755FA0EE029
:102560003B691A68124913469B0013449B000B44B5
:102570000C331B687A681946B868FFF745FA3B695F
:102580001B68094A0021D1540023FB7506E07A68D4
:102590000021B86804F0B2FE2023FB75FB7D1846CD
:1025A0001837BD4680BD00BF500D0020D00D002063
:1025B000580D002080B483B000AF786000BF0C37A6
:1025C000BD465DF8047B704780B588B000AFF86009
:1025D000B9607A60FB68052B06D9214B214A40F28D
:1025E0008911214804F038FB204AFB6852F8233057
:1025F000FB61FB6993F82C301B09DBB21A461C4BBC
:1026000053F82230BB61FB6993F82C3003F00F03C1
:102610007B61FB695B78DBB2002B01D009231AE0F8
:10262000FB6901225A70BB681A467969B869FFF7DD
:1026300023FC7A687969B86903F04CFA0122796958
:10264000B869FFF73DFC7B69DBB201221946B86926
:1026500003F067F9002318462037BD4680BD00BF50
:10266000389800005499000058980000F43D00206C
:1026700014A0000080B582B000AF78600B46FB70FC
:102680007B68184600F004F800BF0837BD4680BDDF
:1026900080B586B000AF78607B68052B06D93D4BCE
:1026A0003D4A40F2AD113D4804F0D6FA3C4A7B6801
:1026B00052F823307B617B6993F82C301B09DBB225
:1026C0001A46384B53F822303B617B6993F82C3023
:1026D00003F00F03FB600022F9683869FFF7F0FB95
:1026E000FB68DBB200221946386903F01AF97B69EE
:1026F000DB78DBB2002B04D07B691033184602F084
:10270000B1FE7B6900225A70274A7B68134401227C
:102710001A70264A7B6852F82330002B1BD12449BB
:102720007A6813469B0013449B000B440C331868D3
:102730001F497A6813469B0013449B000B441B6897
:102740001A4601467868FFF73FFF184A7B68012167
:1027500042F823101AE016497A6813469B00134486
:102760009B000B440833186811497A6813469B0094
:1027700013449B000B441B681A4601467868FFF718
:1027800023FF0A4A7B68002142F8231000BF183754
:10279000BD4680BD38980000AC99000058980000F4
:1027A000F43D002014A00000500D0020D00D0020AA
:1027B000580D002090B589B000AF0023FB770123AE
:1027C000BB77664BD3E90401654BD3E900341A4665
:1027D0002346FDF7EDFF0346002B01D10023BB7715
:1027E000BB7F002B01D00123FB77FB7F002B05D1A2
:1027F0005B4BD3E90034594AC2E90434574B9B6818
:10280000391D02221846FFF783FE0346FB74391D6B
:1028100007F1080302221846FFF7F6F8514B5A68F1
:102820004E4B1B6BD31AFB604E4B5B684B4A1363DA
:102830004A4B9B8E1A46FB681344B3F5007F08D2BF
:10284000464B9A8EFB689BB213449AB2434B9A86CE
:1028500003E0424B40F2FF129A86404B93F8363029
:10286000022B0CD0032B33D0012B41D13B4B022246
:1028700083F8362000237B610023BB614DE00023F9
:102880007B610023BB61FB7C002B41D13B7A162B83
:102890000CD17B7A042B09D1304B032283F83620EC
:1028A0002E4B00229A860123BB6131E07B7A0E2BEE
:1028B00009D12A4B042283F83620284B00229A861D
:1028C00001237B6124E0254B022283F836201FE0A0
:1028D00000237B610123BB61204B9B8EB3F5FA7F04
:1028E00018D31E4B022283F836200023BB6111E06F
:1028F0000023BB6101237B61184B9B8EB3F5FA7FEC
:102900000AD3164B022283F8362000237B6103E0B2
:1029100000BF02E000BF00E000BF104B1A6A7B69F5
:10292000002B14BF01230023DBB219461046FFF72A
:1029300045FA0A4BDA6ABB69002B14BF0123002356
:10294000DBB219461046FFF739FA064B5A680132D6
:102950005A6000BF2437BD4690BD00BF200E002046
:1029600080010020580E002090B587B000AF334B97
:1029700008220021184604F0C1FC3822002130480A
:1029800004F0BCFC2E4B00221A602E4BD3E900341D
:102990002B4AC2E904342A4B7B61294B01221A607D
:1029A0004FF0FF333B6100237B60381D3B690A22F7
:1029B0000021FFF7AFFA02467B699A60204B9B68C3
:1029C0004FF4E1311846FFF783FD0123FB73002329
:1029D000BB731B4B9868FB7BBA7B0821FFF784FD18
:1029E000174B00229A61184BBB60154B01229A616C
:1029F00001212B20FFF772F90246BB689A60104B49
:102A000000225A62114BBB600D4B01225A62012118
:102A10002A20FFF763F90246BB689A60084B002240
:102A20009A86074B012283F83620044B5B68044AE0
:102A3000136300BF1C37BD4690BD00BF580E002079
:102A4000200E002080010020380E0020440E0020BF
:102A500080B500AF124B1B68012B07D1104B02222F
:102A60001A600F4B9B681846FFF7A4FD0C4B9B693F
:102A7000012B07D10A4B02229A61094B1B6A1846A7
:102A8000FFF7DCF9064B5B6A012B07D1044B0222EE
:102A90005A62034BDB6A1846FFF7D0F900BF80BDCE
:102AA000200E002080B489B000AF284BFB60284A7C
:102AB000284B9A4216D00023FB610AE0254AFB69A5
:102AC00052F823202249FB6941F82320FB69013396
:102AD000FB61FB689A08FB699A42EFD81E4B1C4ABF
:102AE0009A6002E01C4B1B4A9A601C4BBB611C4B5A
:102AF0007B611C4BBB60BA687B69D31AFB6107E042
:102B0000BB695A1CBA617A69511C796112781A70D2
:102B1000FB695A1EFA61002BF2D1134B3B61134B38
:102B20007B607A683B69D31AFB6104E03B695A1CFD
:102B30003A6100221A70FB695A1EFA61002BF5D126
:102B400000BF2437BD465DF8047B704700000000DD
:102B5000000000000000000000ED00E00000002088
:102B60006CA800007CB20000100A0020C43E0020C7
:102B700080B400AF6B4A6B4BD3F8883043F47003DA
:102B8000C2F88830684B4CF22052DA81664B4DF621
:102B90002812DA81644B4FF4E9721A80634B1B7878
:102BA000DBB203F00103002B0FD0614B9B78DBB24B
:102BB00003F00803002B2ED05D4A5D4B9B78DBB2FF
:102BC00043F00803DBB2937025E05A49594B03F5F3
:102BD00081531C331B6843F0005201F581531C33B1
:102BE0001A60554B1B6903F48073002B13D1524AB2
:102BF000514B1B6923F47C5343F4407313614E4AD9
:102C00004D4B1B6943F4807313614B4A4A4B1B695C
:102C100023F400731361494B2A221A70454B03F5C4
:102C2000825304334FF08A721A60424A414B1B6848
:102C300023F4402343F4002313603E493D4B03F546
:102C4000805304331B6823F4403343F4803201F58E
:102C5000805304331A603749364B03F581531833D8
:102C60001B6843F4007201F5815318331A60344A2B
:102C7000334B9B6C23F0807323F4E0639364314BFC
:102C800000221A722F4A2F4B5B78DBB223F06003CD
:102C9000DBB243F02003DBB253702B4B80221A705F
:102CA000284B00221A73274BBA221A7000BF254BFB
:102CB0009B79DBB203F01003002BF8D1214A214BA2
:102CC000DB78DBB203F01F03DBB2D3701D4B1322A2
:102CD0001A711C4B18225A711A4A1A4B5B79DBB2D3
:102CE00043F04003DBB2537100BF164B9B79DBB25C
:102CF00003F04003002BF8D0124A124B1B78DBB2D2
:102D000003F03F03DBB2137000BF0E4B9B79DBB2C5
:102D100003F00C030C2BF8D100BFBD465DF8047B1B
:102D2000704700BF00ED00E00020054000F00740C4
:102D300000D007400070044000D0034000E007408E
:102D400000900440004006400050064080B483B02C
:102D500000AF964B1B78DBB203F0C003002B40F0B2
:102D6000D280924B5B79DBB203F04003002B40F042
:102D7000AD808E4B1B78DBB203F00403002B4ED1E9
:102D80008A4B1B7BDBB203F00303002B02D0012B29
:102D900003D006E0864B7B6006E04FF400437B6087
:102DA00002E0844B7B6000BF804B5B78DBB203F0BA
:102DB0003003002B23D07D4B1B7BDBB203F00303DE
:102DC000012B1CD0794B1B78DBB203F03803302B7E
:102DD00005D0382B07D14FF4C0637B800EE04FF451
:102DE000A0637B800AE0714B1B78DBB203F03803F1
:102DF000DB08202202FA03F37B8000BF09E06B4B63
:102E00001B78DBB203F03803DB08012202FA03F37C
:102E10007B807B887A68B2FBF3F37B6002E04FF43F
:102E200000437B60614BDB78DBB203F0E003602B97
:102E300029D0602B06D8202B17D0402B1CD0002B7C
:102E40000CD09DE0A02B2CD0A02B02D8802B21D021
:102E500096E0C02B2CD0E02B31D091E07A6813465D
:102E60009B001344DB017B608AE07A6813469B0079
:102E700013441B027B6083E07A6813461B019B1A94
:102E8000DB017B607CE07A6813469B0013445B02A5
:102E90007B6075E07B684FF4377202FB03F37B6065
:102EA0006EE07B684FF4B76202FB03F37B6067E080
:102EB0007B6840F6950202FB03F37B6060E07B6871
:102EC00040F6713202FB03F37B6059E0374B1B790C
:102ED000DBB29BB203F01F039BB201337B807B8884
:102EE000334AB2FBF3F37B60304B5B79DBB29BB2CE
:102EF00003F01F039BB218337B807A887B6802FB48
:102F000003F37B603CE0294B1B78DBB203F0C0038A
:102F1000402B1AD1254B5B78DBB203F00103002B69
:102F200003D14FF400437B602AE0204B1B7ADBB2D5
:102F300003F00E035B08012202FA03F37B807B8817
:102F40001D4AB2FBF3F37B601AE0184B1B78DBB22F
:102F500003F0C003802B22D1144B1B7BDBB203F0A8
:102F60000303002B02D0012B03D006E0104B7B6043
:102F700006E04FF400437B6002E00E4B7B6000BF35
:102F80000E4B03F5825304331B6803F070431B0F91
:102F900001337A68B2FBF3F3094A136000E000BF23
:102FA0000C37BD465DF8047B704700BF004006400B
:102FB00080F0FA02006CDC0200093D000070044061
:102FC0008801002080B584B000AFF860B960134676
:102FD000FB71BB681F2B05D90D4B0E4AFF210E4814
:102FE00003F03AFEFB68BA6853F8223023F080738E
:102FF00023F4E063FA79120202F4E06243EA020188
:10300000FB68BA6843F8221000BF1037BD4680BD88
:10301000C0980000EC990000CC98000080B483B008
:1030200000AF78600B46FB707B68FA781A7000BFBF
:103030000C37BD465DF8047B704700BF80B584B097
:1030400000AF3B4600221A605A609A60DA60064B75
:103050003B6002237B723B461946002002F002FBD4
:1030600000BF1037BD4680BD80F0FA0280B584B045
:1030700000AF074A3B1D07CA83E807003B1D1946FE
:10308000002002F03BFB00BF1037BD4680BD00BFF3
:103090000499000080B500AF2A210848FFF7BEFF61
:1030A000002212210648FFF78DFFFFF7C7FFFFF749
:1030B000DDFF044802F084FB00BF80BD00E0074054
:1030C00000900440D499000080B582B000AF02F0B7
:1030D00003FA0023FB7106E0FB79184602F0DAFBE5
:1030E000FB790133FB71FB79042BF5D9FFF7D2FF94
:1030F00000BF0837BD4680BD80B584B000AFF86022
:10310000B9601346FB71BB681F2B05D90D4B0E4AE6
:10311000FF210E4803F0A0FDFB68BA6853F8223087
:1031200023F0807323F4E063FA79120202F4E06280
:1031300043EA0201FB68BA6843F8221000BF103767
:10314000BD4680BD10990000009A00001C99000047
:1031500080B483B000AF78600B46FB707B6803F5EA
:1031600081530833FA785209D2B29200134403F122
:103170000473DA00FB7803F01F0313449B001A4624
:103180000123136000BF0C37BD465DF8047B704718
:1031900080B584B000AF786089215D48FFF7D8FF23
:1031A0008A215B48FFF7D4FF8B215948FFF7D0FFF6
:1031B0008C215748FFF7CCFF8D215548FFF7C8FFFA
:1031C0007B68032B00F2968001A252F823F000BF27
:1031D000E1310000533200007D320000A7320000D0
:1031E0000023FB600023BB60FB68002B05D103229A
:1031F00011214848FFF780FF10E0FB68012B05D143
:10320000032202214448FFF777FF07E0FB68022B07
:1032100004D1032207214148FFF76EFFBB68002B52
:1032200005D1032210213B48FFF766FF64E0BB682D
:10323000012B05D1032201213748FFF75DFF5BE039
:10324000BB68022B58D1032206213448FFF754FFF4
:1032500052E00023FB600023BB60FB68002B04D11D
:10326000032204212E48FFF747FFBB68002B45D1FE
:10327000032203212A48FFF73FFF3FE00023FB60C2
:103280000023BB60FB68002B04D1032203212348E9
:10329000FFF732FFBB68002B32D1032202211F4807
:1032A000FFF72AFF2CE00023FB600023BB60FB68D4
:1032B000002B05D1032211211948FFF71DFF07E05C
:1032C000FB68012B04D103220B211248FFF714FFE6
:1032D000BB68002B05D1032210211148FFF70CFF1A
:1032E00010E0BB68012B0DD103220A210948FFF72A
:1032F00003FF07E000BF06E000BF04E000BF02E0FC
:1033000000BF00E000BF00BF1037BD4680BD00BF5A
:103310000070044000A004400090044000C004403D
:1033200000B0044080B500AF002002F0DFFC00BF19
:1033300080BD00BF80B500AF012002F0D7FC00BF08
:1033400080BD00BF80B500AF022002F0CFFC00BFFF
:1033500080BD00BF80B500AF032002F0C7FC00BFF6
:1033600080BD00BF80B500AF042002F0BFFC00BFED
:1033700080BD00BF80B500AF052002F0B7FC00BFE4
:1033800080BD00BF80B500AF062002F0AFFC00BFDB
:1033900080BD00BF80B500AF072002F0A7FC00BFD2
:1033A00080BD00BF80B500AF082002F09FFC00BFC9
:1033B00080BD00BF80B500AF092002F097FC00BFC0
:1033C00080BD00BF80B500AF0A2002F08FFC00BFB7
:1033D00080BD00BF80B500AF0B2002F087FC00BFAE
:1033E00080BD00BF80B500AF0C2002F07FFC00BFA5
:1033F00080BD00BF80B500AF0D2002F077FC00BF9C
:1034000080BD00BF80B500AF0E2002F06FFC00BF92
:1034100080BD00BF80B500AF0F2002F067FC00BF89
:1034200080BD00BF80B500AF002002F077FC00BF78
:1034300080BD00BF80B500AF002003F0DDF800BF05
:1034400080BD00BF80B500AF012003F0D5F800BFFC
:1034500080BD00BF80B500AF022003F0CDF800BFF3
:1034600080BD00BF80B500AF032003F0C5F800BFEA
:1034700080BD00BF80B500AF042003F0BDF800BFE1
:1034800080BD00BF80B500AF052003F0B5F800BFD8
:1034900080BD00BF80B400AFFEE700BF80B400AFC6
:1034A000FEE700BF80B400AFFEE700BF80B400AF0E
:1034B000FEE700BF80B400AFFEE700BF80B400AFFE
:1034C000FEE700BF80B400AFFEE700BF80B400AFEE
:1034D000FEE700BF80B400AFFEE700BF80B400AFDE
:1034E000FEE700BF80B400AFFEE700BF80B400AFCE
:1034F000FEE700BF80B400AFFEE700BF80B400AFBE
:10350000FEE700BF80B400AFFEE700BF80B400AFAD
:10351000FEE700BF80B400AFFEE700BF80B400AF9D
:10352000FEE700BF80B400AFFEE700BF80B400AF8D
:10353000FEE700BF80B400AFFEE700BF80B400AF7D
:10354000FEE700BF80B400AFFEE700BF80B400AF6D
:10355000FEE700BF80B400AFFEE700BF80B400AF5D
:10356000FEE700BF80B400AFFEE700BF80B400AF4D
:10357000FEE700BF80B400AFFEE700BF80B400AF3D
:10358000FEE700BF80B400AFFEE700BF80B400AF2D
:10359000FEE700BF80B400AFFEE700BF80B400AF1D
:1035A000FEE700BF80B400AFFEE700BF80B400AF0D
:1035B000FEE700BF80B400AFFEE700BF80B400AFFD
:1035C000FEE700BF80B400AFFEE700BF80B400AFED
:1035D000FEE700BF80B400AFFEE700BF80B400AFDD
:1035E000FEE700BF80B400AFFEE700BF80B400AFCD
:1035F000FEE700BF80B400AFFEE700BF80B400AFBD
:10360000FEE700BF80B400AFFEE700BF80B400AFAC
:10361000FEE700BF80B400AFFEE700BF80B400AF9C
:10362000FEE700BF80B400AFFEE700BF80B400AF8C
:10363000FEE700BF80B400AFFEE700BF80B400AF7C
:10364000FEE700BF80B400AFFEE700BF80B400AF6C
:10365000FEE700BF80B400AFFEE700BF80B400AF5C
:10366000FEE700BF80B400AFFEE700BF80B400AF4C
:10367000FEE700BF80B584B000AF7860114B1B68D7
:10368000002B02D10F4B104A1A600E4B1B68FB60D7
:103690000C4B1A687B6813440C4A934207D903F019
:1036A000FFFA02460C2313604FF0FF3306E0054B90
:1036B0001A687B681344034A1360FB681846103786
:1036C000BD4680BD600E00200000FF1F00000020EE
:1036D00080B582B000AF7860034800F07FF900BF8A
:1036E0000837BD4680BD00BF603D002098B500AFE3
:1036F000094B0A4A1A600A4B0A4A1C1D13460FCB93
:1037000084E80F0000F0CAF80246054B1A60064B29
:10371000034A1A6000BF98BD603D0020683D00204C
:10372000880E00208C010020583D002080B582B01A
:1037300000AF7860786800F07FF900BF0837BD46B9
:1037400080BD00BF80B586B002AF87ED010A38604A
:103750000223FB81FFF7CAFF164800F02FF903464A
:10376000BB60154800F02AF90346BB60B7F90E208C
:103770000023009300231149114800F065F8034627
:10378000BB6000230F4A01210F4800F0A1F8034657
:10379000BB60D7ED017A9FED0D7A67EE877AFCEE7C
:1037A000E77A17EE901A084800F0BAF800BF103711
:1037B000BD4680BD603D0020583D00202D370000F3
:1037C000683D0020D1360000640E002000007A44DD
:1037D00080B400AFFEE700BF80B483B000AF786074
:1037E0007B68013B032B0FD801A252F823F000BFE6
:1037F00001380000033800000538000007380000D9
:1038000003E002E001E000E000BFFEE7704700BF18
:10381000704700BF0020002104460D46084803F011
:1038200039FA03F07BFA2046294600F035FA0548BC
:10383000002100F0EBFA00F043FA03F037FA000041
:10384000CD6C00008C01002080B586B000AFF86020
:10385000B9607A603B60FB68BA685A607B689AB26C
:10386000FB681A81FB680122DA603A68FB681A611A
:10387000FB680433396A184600F0C8FA0246FB6850
:103880001A60FB681B68002B14BF01230023DBB206
:103890007B617B6918461837BD4680BD80B500AF97
:1038A00000F006FB0346184680BD00BF80B584B01B
:1038B00000AF786000F0FCFA0346FB60F86800F0A7
:1038C00003FB0346BB6000BF1037BD4680BD00BF91
:1038D00080B586B000AFF8607A603B600B46FB7243
:1038E000FB6803F10C02FB689A60FB687A685A6017
:1038F000FB680433F97A3A68184600F0D3FB0246B5
:10390000FB681A60FB681B68002B14BF01230023AF
:10391000DBB27B617B6918461837BD4680BD00BFAE
:1039200080B584B000AF786039607B681B68396807
:10393000184600F0E9FB0346FB60FB6818461037A9
:10394000BD4680BD84B080B582B000AF07F1100ED7
:103950008EE80F003B69796A184600F0A3FC034625
:103960007B607B6818460837BD46BDE8804004B0E0
:10397000704700BF84B080B500AF07F1080E8EE835
:103980000F00BB68F969184600F0AAFC0346184608
:10399000BD46BDE8804004B0704700BF80B582B02E
:1039A00000AF786039607B684FF0FF3239681846A5
:1039B00000F0A4FC78680837BD4680BD80B485B0AF
:1039C00000AF78607B6801225A600123FB60FB68CE
:1039D00018461437BD465DF8047B704780B584B047
:1039E00002AF78607B681B687A68526801921A6936
:1039F00000920FCBFFF7A6FF034618460837BD46D7
:103A000080BD00BF80B584B002AF786039603B688C
:103A10001B683A68526801921A6900920FCBFFF74F
:103A2000A9FF3B685A687B6811461846FFF7B6FF46
:103A300078680837BD4680BD80B586B000AF786134
:103A4000184B1B681B68002B0CBF01230023DBB243
:103A50001A46154B1A7011E03B4614491846FFF7F9
:103A6000D1FFFEF7A7FE0F4B1B681B68002B14BF8E
:103A700001230023DBB21A460D4B1A700A4B1B7848
:103A8000DBB2002BE8D1084B00221A70786900F0F5
:103A900011F80020FFF70AFF002318461837BD462B
:103AA00080BD00BFD09900009C010020603D002037
:103AB000543D002080B582B000AF7860074B0122F2
:103AC0001A60074B00221A70FEF7C2FF0548FFF785
:103AD00085FF002318460837BD4680BD7C3D002089
:103AE0009C010020583D002080B586B000AF786171
:103AF0003961FFF72BF9FFF7E7FA0A4B1B68002241
:103B00001A60FEF731FF00209FED070AFFF71AFE4B
:103B10003B4606491846FFF775FF0023184618373D
:103B2000BD4680BDD09900006F12833A583D0020F9
:103B300000B5DFF80CC000DFDFF808C000DFFEE7EB
:103B4000B53D0000CD3D00002DE9F041344C237817
:103B500053B1344B1B68FF229A70334A0020012373
:103B600010702370BDE8F081304B3148196800F0C7
:103B7000D3FC10B18520BDE8F08101F07FFB294B1B
:103B800021781B68FF229A700029E6D1294A136820
:103B9000002B43D0556845B12A78002A3CD1191D25
:103BA000890089B2284600F06DFD234A234B166830
:103BB0001D603EB39588EB1C9BB2062B22D8D768BC
:103BC000BFB11B48394600F0B5FC8046D0B129B2E0
:103BD000043141EA072130464246002301F0E8F96A
:103BE000054688B94146124800F0CCFC144B1D60D4
:103BF000B3E729B2043130463A463B4601F0D8F9E2
:103C0000054608B90025F1E70E4B0F4A013D53F870
:103C10002550AB6A5A63E9E70D46C6E71D46C4E77F
:103C2000403E0020843E0020413E0020309A0000AB
:103C300058310020489A0000389A00004C3D00207E
:103C4000283D00201C3D0020313B000038B5104CC1
:103C5000207808B1002038BD0E4D2B6893F8241051
:103C600001F02AF92B68DA78FF2A08D06A68094936
:103C700052B101F079FB01232370002038BD9A6A0C
:103C8000203282F30988F1E781E80C00F1E700BFF8
:103C9000413E0020843E002010B5EFF305840CB1B6
:103CA000822010BDEFF31484E40703D5DFF80CC0C5
:103CB00000DF10BDBDE81040FFF746BF493B0000E4
:103CC00010B588B0EFF3058414B1822008B010BDA0
:103CD000EFF3148404F00304022C1DD0032C14D041
:103CE000012C16D008AC84F309880F4C2478E40723
:103CF00016D5022484F31488BFF34F8FBFF36F8F60
:103D0000DFF828C000DF08B010BD074C2478E407B6
:103D1000F6D5FF2008B010BD034C2478E407EFD49B
:103D2000032484F31488E7E7209A00004D3C000048
:103D3000002836D070B506684EB38388DA1C92B27C
:103D4000062A24D8C26804460D46C2B11146164858
:103D500000F0F0FB0646D0B1B4F90420E168206819
:103D6000043242EA01212B46324601F021F9044691
:103D700078B931460C4800F005FC204670BD19B2F8
:103D8000043130462B4601F013F9044608B90020EF
:103D900070BD013C054B064A53F82400836A5A6300
:103DA00070BD0020704700BF583100201C3D00202E
:103DB000313B000008B501F077F818B10138024B2B
:103DC00053F8200008BD00BF1C3D002090B18307C0
:103DD00010D1037873B910B5C48C6CB9C07801F0F8
:103DE0006DF9FF280ED01CB12146074800F0CAFB30
:103DF000002010BD80207047C46AC07801F05EF9D1
:103E0000FF28F0D1812010BD58310020F8B5EFF324
:103E100005847CBBEFF31484E40702D41F4C2478A0
:103E20001CB1DFF888C000DFF8BD18B307680FB316
:103E30008688F31C9BB2062B1CD8C2680D4604462C
:103E4000D2B11146164800F075FB064690B1B4F9A0
:103E50000420E1682068043242EA01212B46324600
:103E600001F0A6F8044680B931460D4800F08AFBFF
:103E70002046F8BD0020F8BD31B2043138462B464B
:103E800001F096F804460028F4D0601E054B064A5F
:103E900053F82000836A5A63F8BD00BF413E0020FA
:103EA000583100201C3D0020313B0000313D000016
:103EB00010B5EFF305841CB9DFF808C000DF10BDB2
:103EC000002010BDB53D000010B5EFF305840CB126
:103ED000822010BDDFF804C000DF10BDCD3D000022
:103EE00098B130B404689CB143689BB101290DD8E6
:103EF000094C246864B11C7944B9012558611C60DF
:103F000059711A611D71184630BC70470020FBE7DB
:103F10002046F9E71846F7E7283D0020820703D13D
:103F200010B119B98620704780207047F8B52B4B27
:103F30001A68002312F1FF3643F1FF3704464FF4AD
:103F40007A70E0FB016730463946FCF763FC237961
:103F5000012B10D0022B0CD1214D2B684BB19C4270
:103F600037D0194602E0944226D011460A68002A4A
:103F7000F9D18120F8BD1A4DE06002222B68227130
:103F80005BB19968884204D20EE0916881420DD8F5
:103F900013461A68401A002AF7D10022A060226056
:103FA000A3B11C600020F8BD1A460023A0609168F0
:103FB0002260081A9060F3E722680A602268002AEB
:103FC000DED09668A16831449160D9E72C6018462C
:103FD000F8BD22682A601346F1E700BF249A00006A
:103FE000443E0020830704D130B143690169186859
:103FF0007047002001467047014670472DE9F041A7
:10400000264E356882B0D5B1AB68254F013BAB6019
:104010004FF001089BB93B682C68346013B11A78E3
:10402000012A2FD00420FFF7D7FB6B79012B09D091
:1040300085F804801CB1A3682546002BEBD002B0A4
:10404000BDE8F0813068EA6858B18168914204D9CE
:104050000DE0996891420CD818460368521A002B5B
:10406000F7D10023AA602B6050B10560E2E7034658
:104070000020AA6099682B608A1A9A600028F4D1FF
:104080003560D7E71846019300F05EFB019B0028DE
:10409000C8D01846294600F05BFBC6E7443E002026
:1040A0004C3D002030B5EFF3058404BBEFF31484DE
:1040B000E40702D4114C24781CB1DFF848C000DFBB
:1040C00030BD98B10368A3B1436893B101290CD8FE
:1040D0000B4D2D687DB11D793DB9012459711C71BD
:1040E00058611D601A61184630BD204630BD002061
:1040F00030BD184630BD284630BD00BF413E0020CF
:10410000283D0020E13E000010B5EFF305840CB11E
:10411000822010BDDFF804C000DF10BD1D3F00008D
:1041200008B50C4E3568EFF305844FF0FF31284693
:10413000002CF8D1DFF820C000DF1028F2D10846AB
:10414000DFF818C000DF04460028EBD00846A0477F
:10415000E8E700BF4C3D002025430000E53F00009C
:1041600078B183070DD102785AB90A0C12040B46B4
:104170003AB910B5048BC17898B200F009FD204619
:1041800010BD4FF00040704778B183070DD1027821
:104190005AB90A0C12040B463AB910B5048BC1780F
:1041A00098B200F023FD204610BD4FF0004070474C
:1041B0002DE9F0414FEA10484FEA08480446B8F1AB
:1041C000000F2CD10D46C8B180B271B34A1C3FD04C
:1041D000314B994242D94FF6FE71012200F0B4FCF6
:1041E00002282CD0002D14BF402300230024254694
:1041F000184641462A462B46BDE8F081B1B14B1C1A
:1042000029D0254B994238D94FF6FE714FF6FF70F1
:10421000002200F099FC022814D04023E6E7002198
:1042200086200A460B46BDE8F081D6E74FF6FF70C0
:10423000424600F089FC022804D04346D6E7A04657
:104240000823D3E7154B1A680823B2F81A80CDE784
:104250004FF6FF71C1E74FF6FF71D7E7104B1E68AD
:104260004FF47A72731E4FF6FE7102FB0533B3FBF7
:10427000F6F38B42B1D899B2AFE7094B1A684FF603
:10428000FE714FF47A73501E03FB0505B5FBF2F582
:104290008D42BBD8A9B2B9E700093D00843E002099
:1042A000249A000070B5EFF305841CB9DFF82CC028
:1042B00000DF70BD054670B183070CD1037853B998
:1042C0000B0C1B040E4633B92C8BE978B0B200F00E
:1042D00099FC204670BD4FF0004070BD6141000068
:1042E00010B5EFF305841CB9DFF80CC000DF10BD7A
:1042F0004FF0004010BD00008941000070B5044639
:10430000EFF3058545B908461146DFF814C000DF14
:1043100084E80700204670BD82230360204670BDFC
:10432000B1410000F0B5044685B0E8B10378012B37
:1043300005D0002180200A460B4605B0F0BD0D4691
:10434000C1B14B1C36D01E4B994224D94FF6FE7298
:10435000204602A900F0A4F9012811D1402100242F
:10436000264627460C460FE080202146224623465B
:1043700005B0F0BD02A92A4600F092F901281CD030
:104380000024264627461024029D20462946324610
:104390003B4605B0F0BD0B4B1B684FF47A70591EBD
:1043A0004FF6FE7200FB0515B5FBF3F19142CFD835
:1043B0008AB2CDE74FF6FF72CAE72946CFE700BFC2
:1043C00000093D00249A00002DE9F0478046C08C8A
:1043D000244B80088A4640D0D3F800900746D8F88E
:1043E0002C6006EB8704630748BF043C4FF08073E2
:1043F000A4F1400544F8043C44F808AC28460021E8
:10440000382202F07BFFD8F81C3044F8203C19F029
:10441000805FC8F82850C8F830A01AD0112F18D9DA
:10442000A7F110004008431E0CD02A464FF0CC31B3
:10443000013B42F8041C42F8081DF9D1C000C0F14C
:10444000080005442B1F9E423CBF4FF0CC3345F87B
:10445000043C054B3360BDE8F0871B68C3F38D0750
:104460009946BCE7189A0000A52E5AE290F825203C
:10447000836A12B92033196070476033196070473E
:1044800010B490F82540836A2CB9203383E80600E5
:104490005DF8044B7047603383E806005DF8044B19
:1044A000704700BF084B1B68DA0107D5074B1B6834
:1044B000DB0703D5064B1B68002B00DB7047054B61
:1044C00001221A70704700BFFCED00E0800E00E092
:1044D000000E00E0483E002010B4094C2268084B52
:1044E000002AFBD0026B1A601A68054C002AFBD028
:1044F000C37843EA012189B221805DF8044B7047FB
:104500007C0000E003490B68024A002BFBD0C0B2DC
:10451000107070477C0000E0034648B1072907D9B6
:1045200004390022084418605A5010465A607047F7
:104530000120704718B3F9B10B3110B4036821F0B2
:10454000030102E018461B6843B144681A1A121BA3
:104550009142F7D834B9416000F1080318465DF87C
:10456000044B70470219035102F1080351605DF8D2
:10457000044B0260184670470B46184670470346C6
:10458000FBE700BF88B181B1083988420FD00368CA
:1045900023B90AE01A6818463AB113469942F9D18C
:1045A00028B10B680360002070470120704700208D
:1045B00048607047002A30B41FDB033222F0030248
:1045C0000C24BAB1A3188B4214D8044401448D1AA8
:1045D000A3189D4204604160826015D3002100E071
:1045E00003469818854263501144F9D200201860A0
:1045F00030BC7047012030BC704722F000420732C7
:1046000022F007021024DCE72346EFE7EFF31083E4
:1046100072B6026803F001030AB11168016003B9C0
:1046200062B61046704700BF81420DD3436899427D
:104630000AD2EFF3108372B602680A60016013F0C9
:10464000010003D162B67047012070470020704717
:10465000426882B110B500F021F9044600F03CFA3E
:10466000012161702046FFF701FF21460448BDE8A3
:10467000104000F0E7B8428801324280704700BF26
:10468000503E00201039002389080122C1810270A8
:10469000437083704360038143818381704700BF0F
:1046A00070B585890446CDB14389C289181D01338F
:1046B0009BB254F8200008609A42638104BF002333
:1046C0006381636813B16378022B1FD0EFF310830B
:1046D00072B6013DA58162B6002070BD16465AB182
:1046E00043685BB1174B196800F0ACF830460821FD
:1046F00000F0B2FB012070BD012070BD114A1268AC
:1047000042600121536090604170EFE7204600F065
:10471000C5F800210546FFF7A9FE2389E289E8696B
:10472000191D01339BB29A4244F82100238104BF32
:1047300000232381284600F0CFF9284600F04EFBE5
:10474000002070BD843E0020C2898089101A704705
:1047500008B500F0D7F9BDE8084000F08FBA00BFF7
:10476000426870B50346002A4FD04678022E0D46A7
:10477000044625D0032E02D0012E10D070BD08466D
:10478000FFF744FF05460028F8D0204600F086F8E1
:1047900029460446FFF76AFE0123637007E000F034
:1047A0007DF804462A461021FFF76AFE667020460F
:1047B00000F092F921462248BDE8704000F042B86E
:1047C00000F06CF800210546FFF750FE2389E969E7
:1047D0001A1D44F82210EFF3108272B6A28901323A
:1047E000A28162B6E28901339BB29A42238104BF5F
:1047F00000232381012328466B7000F06DF92946C0
:104800000F48BDE8704000F01DB88489C589AC42EE
:1048100010D20089061D43F82610EFF3108172B6FE
:1048200001349C8162B6013080B2854214BF188188
:104830001A8170BD0320BDE87040FEF7CDBF00BFF8
:10484000503E002030B4057842688C78013D022D3E
:104850008CBF00250125FAB19378A34204D211E060
:104860009878844210D81A465368002BF8D1002358
:104870004B60516015B18A6030BC704700228A607D
:1048800030BC7047134602464B605160002DF5D096
:10489000996030BC8A6070470246E8E70278436856
:1048A000013A59684160022A07D811B10022886094
:1048B0005A6000229A601846704700225A601846D3
:1048C000704700BF034B5A68426000225860826004
:1048D000704700BF503E0020816830B4002933D0BB
:1048E0000B780A461BB992681378002BFBD04368FB
:1048F0004B60436803B19960157851688478013D35
:10490000022D8CBF0025012500292DD08B78A342D4
:1049100004D211E09A78944210D819464B68002BC3
:10492000F8D100234360486015B1816030BC704706
:104930000023836030BC70470B46114643604860DB
:10494000002DF5D09860F0E74378012BEED1074BAE
:104950005A68904204D01346002AF9D1034ACBE7A3
:1049600042685A60014AC7E71146DAE7503E002024
:1049700030B4164CE2681AB3A38A994203D822E0F5
:10498000D4689CB12246948A23449942F8D8D568C9
:10499000C560D060C468026104B120615B1A9BB23B
:1049A0008382918ACB1A938230BC70479BB2CB1A18
:1049B0000021C16030BCD060026193828182704767
:1049C00013462246F3E715462246E1E7683E0020FB
:1049D0002DE9F041324FF868002859D0BD8A013DD9
:1049E000ADB2BD82002D53D1DFF8BCE02D4B9EF857
:1049F0000060B3F80080013E022E8CBF0026012625
:104A00004FF0010C826832B14368536043680BB1C8
:104A10009A6045608560DEF804208478002A39D0E9
:104A20009378A34204D219E099788C4218D81A4698
:104A30005368002BF8D14560506006B900224378D6
:104A40008260042B828A15D0C36880F801C0CBB184
:104A50001F61C5600561FAB91846D3E71346124ACB
:104A600043605060002EE9D0986043788260042B48
:104A7000828AE9D1C38A80F801C043448382C36833
:104A8000002BE5D103613AB9BA82FA60BDE8F08142
:104A9000BDE8F081044ACEE7BA82FB60BDE8F08150
:104AA000683E00204C3E0020503E002083682BB121
:104AB00042685A60426802B193607047054B5A6879
:104AC000904203D01346002AF9D1704742685A60D9
:104AD000704700BF503E0020036973B1C268DA60BE
:104AE000C16859B130B49A8A858A00242A449A82CE
:104AF0000B61C46030BC00230361704799820023BE
:104B00000361704730B40F4BDC78EFF3108272B65C
:104B10009A78944208D9551C1A789D70551CAC425D
:104B200014BFEDB200251D7062B6944205D903EBA7
:104B3000C20330BC586099607047022030BCFEF759
:104B40004BBE00BF983C0020104B10B51B6862B1F3
:104B50001A8B00EA0204844211D0062258830846C8
:104B6000114600F079F9012010BD1A8B10EA0204F9
:104B70000AD022EA000018835C83022010BD22EADA
:104B800004021A83022010BD0522E7E7843E0020BC
:104B90000139154B10B553F8214044B1238B62788D
:104BA000618B1843062A208318D0052A00D010BD37
:104BB00010EA0103FBD0638320EA01002083204632
:104BC000FFF78AFF012320466370628B0821FFF7FD
:104BD00057FC2046BDE8104000F000B900EA010390
:104BE0008B42E9D010BD00BF1C3D00200139044BB1
:104BF00053F821301BB11A8B22EA0000188370474A
:104C00001C3D002008B50139064B53F821303BB15B
:104C100001461846FFF776FFBDE8084000F02EB8C1
:104C200008BD00BF1C3D002038B5038B4278458B82
:104C30001943062A018319D0052A00D038BD11EA8C
:104C40000503FBD0438321EA050104460183FFF7F6
:104C500043FF0123204663700821628BFFF710FC9D
:104C600021460548BDE83840FFF7ECBD01EA0503E1
:104C7000AB42E8D038BD00BF503E0020054B1A784B
:104C800012B101229A707047034B4FF080521A60A4
:104C9000704700BF2C0A002004ED00E038B51A4B25
:104CA0001A4D186801234370FFF70CFEAB786C783F
:104CB00093B921E0012A1AD0FFF7CAFCEB7801343E
:104CC0009C4208BF0024EFF3108372B6AB78013B1F
:104CD000DBB2AB7062B67BB105EBC4014B681A78EE
:104CE0001846002AE6D10989FFF79EFFE6E7184635
:104CF0008968FFF735FDE1E705486C70FFF7CEFDE9
:104D0000BDE8384000F058B8843E0020983C0020B0
:104D1000503E00200A4A0B490B480C4B10B4146853
:104D20000C600B4A002407210460196013685DF8C9
:104D3000044B43F07F434FF0FF301360704700BFD8
:104D40001C9A000014E000E018E000E010E000E031
:104D500020ED00E0704700BF08B50B4B1868012339
:104D60004370FFF7AFFDFEF753FD084A13680133A8
:104D70001360FFF72DFEFFF741F90548FFF78EFDA1
:104D8000BDE8084000F018B8843E00204C3E0020EA
:104D9000503E0020064B1B68DA6A9B6A9A4203D891
:104DA0001268044B9A4202D00120FEF715BD7047ED
:104DB000843E0020A52E5AE2064A074B127858601E
:104DC000022141702AB11B68984202D0C078FFF7D7
:104DD00099BB7047483E0020843E002038B5044609
:104DE00000B31A4D8278286883789A420BD9FFF76E
:104DF00069FD174A2B6812780120022158706C60F7
:104E0000617042B938BD0123637021461148BDE885
:104E10003840FFF717BD9C42F4D0E078BDE8384039
:104E2000FFF770BB0B48FFF739FD094A074B1278B3
:104E3000586002214170002AE4D01B688342E1D00F
:104E4000C078BDE83840FFF75DBB00BF843E00205E
:104E5000483E0020503E0020F8B138B54FF6FF73B1
:104E600098420D460D4C03D001462068FFF780FDA7
:104E700023680B485D70FFF711FD0A4B60601B78DB
:104E800006490222427003B938BD0B689842FBD034
:104E9000C078BDE83840FFF735BB7047843E00203E
:104EA000503E0020483E0020024B186800B1C078F8
:104EB000704700BF843E002070B558B9374D2B684D
:104EC000997083F82410364C626892788A4236D8FA
:104ED000002070BD334B1B88984201D9FF2070BD64
:104EE0000138314B53F82040002CF7D02B4DA170E6
:104EF0002B6884F824109C42E5D02046FFF7ECFC98
:104F00006678012EE4D12648FFF7C8FC0446002845
:104F100036D02868A27883789A422AD9FFF7D2FC43
:104F2000224A2B6812785E7002216C606170002A40
:104F3000CED09C42CCD0E078FFF7E4FAC8E719461F
:104F40002046FFF77FFC2B68144E01225A70204642
:104F5000FFF7A4FC154B68601B7802224270002BFF
:104F6000B6D033689842B3D0C078FFF7CBFA0020B0
:104F700070BD667021460A48FFF764FC002070BDD2
:104F80000748FFF78BFC094B68601B7802224270D0
:104F9000002B9DD02B689842E6D199E7843E0020F3
:104FA000503E0020149A00001C3D0020483E002086
:104FB0002DE9F04111F0FF0F0C46064638489046A7
:104FC0001F4608BF0134FFF721FB054668B30020E8
:104FD000C4F30F210123E4B2C5F82C80EF61E9840A
:104FE000AC7085F8244028706860A860E86028618B
:104FF0002862A882E8822883688385F825006B7080
:10500000B1B131462846FFF7DFF9264B198861B167
:1050100025480368002B40D00346012402E053F8E2
:10502000042F52B101348C42F9D90020BDE8F0813F
:105030001E48FFF7EBFAE862E3E7631EE2B21C4F9B
:1050400040F823503B78EA701BB128460121FFF756
:1050500043FA184EAA78306883789A420CD9FFF741
:1050600031FC33683A78012002215870756069700C
:105070005AB92046BDE8F08101236B7029460E48DD
:10508000FFF7E0FB2046BDE8F0819D42F1D0E878D3
:10509000FFF738FA2046BDE8F08101221446CEE73A
:1050A0009C0E0020149A00001C3D0020480F002098
:1050B000483E0020843E0020503E00202DE9F0476D
:1050C000674F3C6848B1E378834206D0654B1B8844
:1050D000984258D9FF20BDE8F08700236370FBF7A2
:1050E00048FAA062FFF756FE3B681C6AE4B101264D
:1050F00063682046002B3ED0FFF7D0FB0021054619
:10510000FFF7B4F92846FFF7E7FC6E7029465648CA
:10511000FFF798FBE3682A6AE260A56066802C626C
:105120001C46002CE4D13B68DA785049504D514878
:105130004B4E013A002441F82240D96AFFF774FA35
:1051400039682B78CC6223B108462146FFF7C4F9B1
:1051500031684948424EFFF767FA002442483C60F4
:10516000FFF79CFB2B78786002224270002B61D104
:105170000020BDE8F087E2686380A360E360144626
:10518000002CB5D1CFE7461EDFF8E0A05AF82690F4
:10519000B9F1000F9ED04846FFF788FC4846FFF75C
:1051A0009BFCD9F820404FF00108E4B16368204629
:1051B000002B48D0FFF772FB00210546FFF756F998
:1051C0002846FFF789FC85F8018029462648FFF725
:1051D00039FBE3682A6AE260A560A4F802802C62C9
:1051E0001C46002CE2D100244AF82640204DD9F874
:1051F0002C102048FFF718FA2B78C9F82C4053BB25
:10520000194C1D48164E4946FFF70EFA3968626878
:105210008B7892789A42ABD901234B702046FFF7E6
:1052200011FB2046FFF73AFB2B7870600222427098
:10523000002B9DD0336898429AD0C078FFF762F96E
:105240000020BDE8F087E2686380A360E360144655
:10525000002CABD1C7E721464846FFF73DF9CFE721
:10526000843E0020149A0000503E00201C3D002087
:10527000483E0020480F00209C0E0020F8B5FFF7A4
:1052800011F9294B1A8822B192002848002102F016
:1052900035F8274B27481988274D284E3422FFF729
:1052A00089F9274A274B12881968274842F000429B
:1052B000FFF780F9254B264A198810680822FFF766
:1052C00079F90024FF2201231F48EA706B70EC84F7
:1052D0002C70AC7085F824406C60AC60EC602C6184
:1052E0002C62AC82EC822C836C8385F82540FFF71E
:1052F0008DF91849E8622846FFF766F81649174BFA
:10530000174A18480D603678022704216F70D6704E
:1053100014705470017019704460DC601C619C82D0
:10532000BDE8F840FEF772BA149A00001C3D002058
:10533000289A00009C0E00208C3E0020349A000029
:10534000189A00002C9A0000480F0020509A000084
:10535000503D0020D1370000843E0020683E0020F0
:10536000983C0020503E002008B51E4B1A6842F4BD
:105370007F021A601B681B0203F07F43DB43B3FA12
:1053800083F3194A19481268DBB2C3F10803C2F368
:105390000222934298BF531C6FF08071026801FA99
:1053A00003F322F07F4203F07F4313430360FFF7D0
:1053B000B1FC0F4B0028186012DB00F1604000F5D3
:1053C0006440FF2202701A6853099B0003F1604396
:1053D00003F5614302F01F02012101FA02F21A6093
:1053E00008BD00BF20ED00E00CED00E01CED00E08A
:1053F000803E0020F7B50E4B0E4F01244FF085453F
:105400001C6000268DF800408DF8014000992E6048
:10541000384600F0B1FD8DF805408DF80460019923
:10542000384600F089FDAE612C6003B0F0BD00BFCE
:10543000000790420000044008B5034628B9064B17
:10544000064A0748762101F007FC417000201870D9
:105450005860986008BD00BF529A0000BC9A0000D6
:10546000579A000010B5044628B90A4B0A4A0B485F
:10547000CC2101F0F1FB4378FF2B09D000F044FA76
:1054800063780133DBB2637000F034FA002010BDA2
:10549000012010BD529A0000CB9A0000579A0000DC
:1054A0000A4B00229A6403F140029A6303F130022E
:1054B0009A6203F120029A6103F110029A60044A91
:1054C0001360044B9B60DB60704700BF943D00207D
:1054D000803D0020843D002008B5FFF7E1FFFFF785
:1054E00089FF002008BD0000094B1A7802F03F0236
:1054F00042F080021A709A79C2F38102022AFAD12C
:10550000044B00221A76044A1378002BFCD1704712
:1055100000400640A000C842D400C8422DE9F04136
:105520000446467A434886B0884600F07AFE2388CF
:10553000042B11D1802801D1FFF7D6FF05A863798C
:1055400022790190E179CDF800803A4800F0A2FE7E
:10555000394B01221A7144E0082B1CD1802801D15B
:10556000FFF7C2FF344B334D00221A7105A9029197
:10557000E179237A0091A279CDF80480314628465A
:1055800000F0E6FE2B7803F03F032B70AB7913F0AD
:105590000C0FFBD125E0802B47D1802805AF0DD023
:1055A000254B244800221A71E1790091237AA279CF
:1055B0000297CDF80480314600F0CAFE1D4D627B93
:1055C000237B0092019700223146284600F038FFE5
:1055D0002B7803F03F032B70AB79C3F38103032BCC
:1055E000FAD1164BA2781A71E2781A70A3784BB9E7
:1055F000A07AB8B10F48E37A627B217B00F09CFD72
:10560000002013E02379012B03D16179094800F0D0
:1056100048FD094B22791A70227909490B789A4280
:10562000FCD1E5E7074B187600E0012006B0BDE8A5
:10563000F08100BF004006402000C8420000C84280
:10564000C000C8428000C842054B0A7853F8203099
:1056500003F104735B011A774A781A75704700BF2B
:10566000B09B000010B50C4630B11D4B1D4A1E48C2
:1056700040F24F2101F0F0FA8B7A012B17D10B7910
:105680004A79E0798979002B14BF08230023002A86
:1056900014BF042200220343002943EA020314BF7B
:1056A000022100211943114B186800F031FF04F169
:1056B0000B010020FFF7C8FFA37A227A617A0C4819
:1056C00000F087FDA37A012B05D1E37A1BB1094ACB
:1056D0001378002BFCD0084B22681A60002010BD04
:1056E0005F9B00009B9B0000059B0000B09B00009F
:1056F00000400640C400C842EC3D002008B530B16F
:10570000124B134A13484FF4307101F0A5FA124BB3
:1057100001221A60114B0A681A60114B0A7A1B6841
:1057200003F1047311335B01186840B93AB1087989
:105730005861487918618879D860C87998601A608A
:105740004A7A82F001025A60002008BD7D9B000069
:10575000D89A0000059B0000F4079042F03D00201D
:10576000E0A00000054B00F0E002134400F01F0031
:105770001844800001230360704700BF4001A4105B
:1057800008B5064800F014FD054A41F24403D35819
:105790001B0F0133B0FBF3F008BD00BF0040064013
:1057A0000070044008B5FFF7EBFF40F6B833B0FBDC
:1057B000F3F010F1FF3001D300BFFAE708BD00009D
:1057C00037B5044628B91D4B1D4A1E48722101F009
:1057D00043FA1D4D04230093012202232846002191
:1057E00000F09DFE19492046FFF798FE607D237D5D
:1057F000E27CA17C0090284600F091FE41F2040179
:10580000227C6B58120402F4403223F440331343D9
:105810006B50627C2B68920402F4402223F44023F4
:1058200013432B6004F10E010020FFF70DFFFFF77B
:10583000A7FF074B1860002003B030BDEE9B0000AF
:10584000DB9D0000FD9B000000700440A557000098
:105850008801002008B5064800F0AAFC054A41F27C
:105860004403D358C3F303630133B0FBF3F008BD23
:105870000040064000700440052808D8DFE800F02A
:10588000030305050505FFF77BBFFFF7E3BF002016
:1058900070470000042808B506D9064B064A074899
:1058A00040F2B12101F0D8F9054B185CBDE8084081
:1058B000FFF758BF4A9C0000BA9B0000FD9B000008
:1058C000D69D0000052808B506D9064B064A0748AC
:1058D00040F2DF3101F0C0F9054B185CBDE808402B
:1058E000FFF740BF9C9D0000D49B0000FD9B000083
:1058F000B49B0000034A13681BB1013B136003B95A
:1059000062B67047E43D002072B6024A1368013364
:1059100013607047E43D002009B14276704702767B
:1059200070470AB1C17670478176704700EB41112C
:1059300001F580520023136041F204028B5241F2C0
:1059400006028B5241F208028B5041F20C028B503E
:1059500041F210028B5041F214028B5241F21602B6
:105960008B5241F218028B5041F21C028B5241F2D1
:105970001E028B52704738B500F104735B010021A1
:105980009961054659640C4619645960D96199605A
:10599000214628460134FFF7C9FF102CF8D138BD45
:1059A0000F2938B505D90D4B0D4A0E48D72101F006
:1059B00053F99DF81040240204F4E0659DF814406A
:1059C00004F007042C43DB0044EAC222DBB280313E
:1059D0001A4300EB411192B2CA8038BD329E0000DA
:1059E000BD9E00005C9E00000F2938B505D9164BFE
:1059F000164A1748E62101F02FF900F104735B0104
:105A00004901DB6941F20804DBB1124B45182B4414
:105A10005B010144DD6F45B99B6F33B90B5922F02F
:105A2000404203F040431A430CE041F20800C2F345
:105A300009020B5823F47F7323F0030313430B5025
:105A400038BD01440A5138BD329E0000A69E0000B8
:105A50005C9E0000081010020F2970B506D9184B83
:105A6000184A194840F2411101F0F6F8490144186A
:105A7000E3B1164B23445B01012541F21E069D87CD
:105A8000A35B52029BB202F4F05223F4F05313438F
:105A9000A3530F4B23445B0141F216019D87635AC8
:105AA0009BB223F4F0531A43625270BD074A22445A
:105AB00052019387064A22445201938770BD00BF6A
:105AC000329E0000119E00005C9E00001E1010021D
:105AD000161010020F2910B506D9174B174A18488F
:105AE0004FF4AD7101F0B8F84901164B4418234446
:105AF0005B0120469B8F9BB241F21E0163B1635A4A
:105B0000C2F3080203F47E431343635241F21601C9
:105B1000635A03F47E430BE0635AC2F30E0203F4AC
:105B200000431343635241F21601635A03F40043E6
:105B30001A43425210BD00BF329E0000F69D000085
:105B40005C9E00001E101002002808B503DA0B4B03
:105B50000B4A5D2104E0552805DD0A4B084A5E2109
:105B6000094801F079F84209012300F01F0003FA07
:105B700000F0064B43F8220008BD00BFE99E00007C
:105B8000D79E00003B9F0000F89E000000E100E06F
:105B90002DE9F84303099146164A52F82360164A44
:105BA00000F00F0452F8237080460D4610220021A9
:105BB000484601F0A3FB89F80080224630460121C7
:105BC000FFF7AAFE3B1903F104735B014FF00008D5
:105BD00083F81C803A5D05F03F0502F0C0021543D2
:105BE00001223D5530461A772146FFF79FFE404679
:105BF000BDE8F88314A0000010A00000174B70B59A
:105C00001C680E4644BB21464022186001F076FB1A
:105C1000134B1D68134B0122284605F104751A60C9
:105C20006D01FFF7A8FE3378AB60737883F0010352
:105C30002B610D4B0D4D93F90000FFF785FF2857A1
:105C40000134FFF781FF102CF9D1094B01221A60B2
:105C5000084B186800F0D0FE002070BDE83D002021
:105C600014A000000408904218A0000019A0000031
:105C70008407904210A000004160826000207047BD
:105C8000FE28F8B504460E461546174F1FD10B0ADD
:105C900000223968012723B307FA02F4234212D005
:105CA000100100F1100E70450DD251F820C0BCF16A
:105CB000000F06D1C4B241F820502A463146204692
:105CC0000CE00130EFE723EA04030132E3E706B218
:105CD0003B6853F8267027B943F82620FFF758FF92
:105CE00000E0FF242046F8BDE83D0020094B1B687A
:105CF00053F8203063B10109074A52F8212000F01F
:105D00000F001077D0775A6812B1197B9868104746
:105D1000704700BFE83D002014A000001F4B2DE994
:105D2000F74F53F82050DFF87890D5F82CB00701E2
