:100000000000002059050000954000009D400000C0
:10001000A5400000AD400000B54000000000000019
:10002000000000000000000000000000C905000002
:10003000BD400000000000006F060000CF06000079
:10004000253F0000353F0000453F0000553F0000C0
:10005000653F0000753F0000853F0000953F0000B0
:10006000A53F0000B53F0000C53F0000D53F0000A0
:10007000E53F0000F53F000005400000154000008E
:1000800025400000C5400000CD400000D5400000E4
:10009000DD400000E5400000ED400000F5400000BC
:1000A000FD400000054100000D4100001541000029
:1000B0001D410000254100002D4100003540000099
:1000C00035410000454000003D4100005540000022
:1000D00045410000654000004D41000055410000D1
:1000E0005D410000654100006D4100007541000068
:1000F0007D410000854100008D41000095410000D8
:100100006905000069050000690500006905000037
:100110009D410000A5410000AD410000B541000037
:10012000BD410000C5410000CD410000D5410000A7
:10013000DD410000E5410000ED410000F541000017
:10014000FD41000005420000754000000D42000026
:1001500085400000154200001D42000025420000BD
:100160002D420000354200003D42000045420000A3
:100170004D420000554200005D4200006542000013
:100180006D42000069050000690500006905000076
:1001900069050000690500006905000069050000A7
:1001A0006905000069050000690500006905000097
:1001B0006905000069050000690500006905000087
:1001C0006905000069050000690500006905000077
:1003F000690500006905000069050000FFFFFFFFB7
:10040000FFFFFFFFFFFFFFFFFFFFFFFFFEFFFFFFFD
:10044000044B05481B1A062B02D9044B03B118476D
:10045000704700BFC3080020C00800200000000053
:1004600005490648091A891001EBD171491002D0DB
:10047000034B03B118477047C0080020C008002094
:100480000000000010B5064C237843B9FFF7D8FFF1
:10049000044B13B10448AFF300800123237010BD57
:1004A000C008002000000000C0B6000008B5084BDE
:1004B0001BB108490848AFF300800848036813B926
:1004C000BDE80840CCE7064B002BF9D09847F7E78A
:1004D00000000000C4080020C0B60000BC080020D6
:1004E00000000000154B002B08BF134B9D46A3F5E1
:1004F000803A00218B460F461348144A121A08F01E
:100500004DF80F4B002B00D098470E4B002B00D01E
:1005100098470020002104000D000D48002802D05B
:100520000C4807F007FD07F049FD2000290004F002
:10053000DBF807F00BFD00BF000008000000002002
:100540000000000015440000C0080020A43D002069
:10055000357F00006D7F000072B603F009F903F0EB
:10056000A1F862B6FFF7BEFFFFF7FEBF80F3098870
:100570007047EFF309807047684680F309885A484E
:100580000078C00714BF0220032080F3148870474E
:10059000DFF858C1EFF305831B0618BF6047EFF380
:1005A0001483DB0708BF604700DF7047DFF840C1F6
:1005B000EFF305831B0618BF6047EFF31483DB07D7
:1005C00008BF604700DF7047EFF30980816911F8C9
:1005D000021CE1BB90E80F1010B5E047BDE81040E9
:1005E000EFF3098C8CE80700424B93E80600914238
:1005F00008BF704741B91EF0100F16D13E49086878
:1006000020F00100086010E01EF0100F06BF2CED76
:10061000108A0120002081F825002CE9F00FC1F894
:1006200028C00CB405F038FA0CBC1A60D2F828C007
:10063000BCE8F00F92F8250000280EBF6FF0020E04
:100640006FF0120EBCEC108A8CF30988704710B55D
:100650002A4A1268914209D8294C54F8214090E85E
:100660000F10A047EFF3098C8CE80F0010BD10B5F8
:1006700005F096F9BDE810401E4B93E80600914244
:1006800008BF7047EFF3098C1EF0100F06BF2CED6A
:10069000108A0120002081F825002CE9F00FC1F814
:1006A00028C00CB405F0F8F90CBC1A60D2F828C0C8
:1006B000BCE8F00F92F8250000280EBF6FF0020E84
:1006C0006FF0120EBCEC108A8CF30988704710B5DD
:1006D00005F0C4F9FFF7CEBF10B505F0BDF905F080
:1006E000BDF9FFF7C7BF0000C0AC000025530000F4
:1006F00041530000643D002034EF00E000000000A2
:10070000FCFFFFFF81F0004102E000BF83F00043E7
:1007100030B54FEA41044FEA430594EA050F08BF9C
:1007200090EA020F1FBF54EA000C55EA020C7FEA60
:10073000645C7FEA655C00F0E2804FEA5454D4EBDD
:100740005555B8BF6D420CDD2C4480EA020281EAA7
:10075000030382EA000083EA010180EA020281EADF
:100760000303362D88BF30BD11F0004F4FEA013131
:100770004FF4801C4CEA113102D0404261EB410140
:1007800013F0004F4FEA03334CEA133302D05242C6
:1007900063EB430394EA050F00F0A780A4F1010482
:1007A000D5F1200E0DDB02FA0EFC22FA05F28018BC
:1007B00041F1000103FA0EF2801843FA05F35941A2
:1007C0000EE0A5F120050EF1200E012A03FA0EFC21
:1007D00028BF4CF0020C43FA05F3C01851EBE3714B
:1007E00001F0004507D54FF0000EDCF1000C7EEB68
:1007F00000006EEB0101B1F5801F1BD3B1F5001FA6
:100800000CD349085FEA30004FEA3C0C04F10104C4
:100810004FEA445212F5800F80F09A80BCF1004FED
:1008200008BF5FEA500C50F1000041EB045141EA6F
:10083000050130BD5FEA4C0C404141EB010111F470
:10084000801FA4F10104E9D191F0000F04BF01461B
:100850000020B1FA81F308BF2033A3F10B03B3F1F9
:1008600020020CDA0C3208DD02F1140CC2F10C0289
:1008700001FA0CF021FA02F10CE002F11402D8BFE7
:10088000C2F1200C01FA02F120FA0CFCDCBF41EAB3
:100890000C019040E41AA2BF01EB0451294330BD82
:1008A0006FEA04041F3C1CDA0C340EDC04F114045F
:1008B000C4F1200220FA04F001FA02F340EA030036
:1008C00021FA04F345EA030130BDC4F10C04C4F17C
:1008D000200220FA02F001FA04F340EA030029465C
:1008E00030BD21FA04F0294630BD94F0000F83F4A6
:1008F000801306BF81F480110134013D4EE77FEA89
:10090000645C18BF7FEA655C29D094EA050F08BFD4
:1009100090EA020F05D054EA000C04BF19461046B5
:1009200030BD91EA030F1EBF0021002030BD5FEAF9
:10093000545C05D14000494128BF41F0004130BD21
:1009400014F580043CBF01F5801130BD01F0004575
:1009500045F0FE4141F470014FF0000030BD7FEAE8
:10096000645C1ABF194610467FEA655C1CBF0B46E3
:10097000024650EA013406BF52EA033591EA030FFA
:1009800041F4002130BD00BF90F0000F04BF0021F2
:10099000704730B54FF4806404F132044FF0000525
:1009A0004FF0000150E700BF90F0000F04BF00219E
:1009B000704730B54FF4806404F1320410F0004504
:1009C00048BF40424FF000013EE700BF42004FEAFF
:1009D000E2014FEA31014FEA02701FBF12F07F437C
:1009E00093F07F4F81F06051704792F0000F14BF79
:1009F00093F07F4F704730B54FF4607401F00045BD
:100A000021F0004120E700BF50EA010208BF704713
:100A100030B54FF000050AE050EA010208BF704708
:100A200030B511F0004502D5404261EB41014FF471
:100A3000806404F132045FEA915C3FF4DCAE4FF075
:100A400003025FEADC0C18BF03325FEADC0C18BF5C
:100A5000033202EBDC02C2F1200300FA03FC20FAAD
:100A600002F001FA03FE40EA0E0021FA02F11444FA
:100A7000C1E600BF70B54FF0FF0C4CF4E06C1CEA0F
:100A800011541DBF1CEA135594EA0C0F95EA0C0F84
:100A900000F0DEF82C4481EA030621EA4C5123EAF7
:100AA0004C5350EA013518BF52EA033541F4801126
:100AB00043F4801338D0A0FB02CE4FF00005E1FBD9
:100AC00002E506F00042E0FB03E54FF00006E1FB23
:100AD00003569CF0000F18BF4EF0010EA4F1FF0466
:100AE000B6F5007F64F5407404D25FEA4E0E6D41A6
:100AF00046EB060642EAC62141EA55514FEAC520B7
:100B000040EA5E504FEACE2EB4F1FD0C88BFBCF532
:100B1000E06F1ED8BEF1004F08BF5FEA500E50F1E3
:100B2000000041EB045170BD06F0004646EA0101A9
:100B300040EA020081EA0301B4EB5C04C2BFD4EBDB
:100B40000C0541EA045170BD41F480114FF0000ED4
:100B5000013C00F3AB8014F1360FDEBF002001F042
:100B6000004170BDC4F10004203C35DA0C341BDCBC
:100B700004F11404C4F1200500FA05F320FA04F08E
:100B800001FA05F240EA020001F0004221F00041C2
:100B900010EBD37021FA04F642EB06015EEA430E35
:100BA00008BF20EAD37070BDC4F10C04C4F1200565
:100BB00000FA04F320FA05F001FA04F240EA020018
:100BC00001F0004110EBD37041F100015EEA430EE9
:100BD00008BF20EAD37070BDC4F1200500FA05F209
:100BE0004EEA020E20FA04F301FA05F243EA020388
:100BF00021FA04F001F0004121FA04F220EA020097
:100C000000EBD3705EEA430E08BF20EAD37070BDDC
:100C100094F0000F0FD101F00046400041EB0101BC
:100C200011F4801F08BF013CF7D041EA060195F09E
:100C3000000F18BF704703F00046520043EB030358
:100C400013F4801F08BF013DF7D043EA0603704745
:100C500094EA0C0F0CEA135518BF95EA0C0F0CD050
:100C600050EA410618BF52EA4306D1D181EA030196
:100C700001F000414FF0000070BD50EA410606BF90
:100C80001046194652EA430619D094EA0C0F02D1D5
:100C900050EA013613D195EA0C0F05D152EA03361A
:100CA0001CBF104619460AD181EA030101F0004138
:100CB00041F0FE4141F470014FF0000070BD41F081
:100CC000FE4141F4780170BD70B54FF0FF0C4CF45B
:100CD000E06C1CEA11541DBF1CEA135594EA0C0F7A
:100CE00095EA0C0F00F0A7F8A4EB050481EA030EC7
:100CF00052EA03354FEA013100F088804FEA0333AE
:100D00004FF0805545EA131343EA12634FEA02227B
:100D100045EA111545EA10654FEA00260EF000413C
:100D20009D4208BF964244F1FD0404F5407402D28E
:100D30005B084FEA3202B61A65EB03055B084FEA1F
:100D400032024FF480104FF4002CB6EB020E75EB1C
:100D5000030E22BFB61A754640EA0C005B084FEA44
:100D60003202B6EB020E75EB030E22BFB61A7546C1
:100D700040EA5C005B084FEA3202B6EB020E75EB0C
:100D8000030E22BFB61A754640EA9C005B084FEA84
:100D90003202B6EB020E75EB030E22BFB61A754691
:100DA00040EADC0055EA060E18D04FEA051545EA80
:100DB00016754FEA06164FEAC30343EA52734FEA29
:100DC000C2025FEA1C1CC0D111F4801F0BD141EAA2
:100DD00000014FF000004FF0004CB6E711F4801F07
:100DE00004BF01430020B4F1FD0C88BFBCF5E06FE7
:100DF0003FF6AFAEB5EB030C04BFB6EB020C5FEAF7
:100E0000500C50F1000041EB045170BD0EF0004E4B
:100E10004EEA113114EB5C04C2BFD4EB0C0541EA7D
:100E2000045170BD41F480114FF0000E013C90E67A
:100E300045EA060E8DE60CEA135594EA0C0F08BF3E
:100E400095EA0C0F3FF43BAF94EA0C0F0AD150EA3D
:100E500001347FF434AF95EA0C0F7FF425AF1046D0
:100E600019462CE795EA0C0F06D152EA03353FF4F8
:100E7000FDAE1046194622E750EA410618BF52EA75
:100E800043067FF4C5AE50EA41047FF40DAF52EA49
:100E900043057FF4EBAE12E74FF0FF3C06E000BFE6
:100EA0004FF0010C02E000BF4FF0010C4DF804CDF3
:100EB0004FEA410C7FEA6C5C4FEA430C18BF7FEAB3
:100EC0006C5C1BD001B050EA410C0CBF52EA430CE1
:100ED00091EA030F02BF90EA020F0020704710F161
:100EE000000F91EA030F58BF994208BF90422CBFF0
:100EF000D8176FEAE37040F0010070474FEA410CE9
:100F00007FEA6C5C02D150EA013C07D14FEA430C06
:100F10007FEA6C5CD6D152EA033CD3D05DF8040B77
:100F2000704700BF8446104662468C4619466346A9
:100F300000E000BF01B5FFF7B7FF002848BF10F180
:100F4000000F01BD4DF808EDFFF7F4FF0CBF0120C5
:100F500000205DF808FB00BF4DF808EDFFF7EAFF41
:100F600034BF012000205DF808FB00BF4DF808EDFC
:100F7000FFF7E0FF94BF012000205DF808FB00BFF1
:100F80004DF808EDFFF7CEFF94BF012000205DF87B
:100F900008FB00BF4DF808EDFFF7C4FF34BF012088
:100FA00000205DF808FB00BF4A0011D212F50012C4
:100FB00011D20DD56FF47873B3EB62520ED44FEAB1
:100FC000C12343F0004343EA505323FA02F0704731
:100FD0004FF00000704750EA013002D14FF0FF306F
:100FE00070474FF0000070474FEA4102B2F1E04312
:100FF00024BFB3F5001CDCF1FE5C0DD901F0004C00
:101000004FEAC0024CEA5070B2F1004F40EB83004F
:1010100008BF20F00100704711F0804F21D113F17B
:101020003872BCBF01F00040704741F480114FEAB4
:101030005252C2F11802C2F1200C10FA0CF320FA3D
:1010400002F018BF40F001004FEAC1234FEAD3235A
:1010500003FA0CFC40EA0C0023FA02F34FEA4303C4
:10106000CCE77FEA625307D150EA01331EBF4FF04D
:10107000FE4040F44000704701F0004040F0FE4068
:1010800040F40000704700BF53B94AB9002908BFB7
:1010900000281CBF4FF0FF314FF0FF3001F0ECB8DB
:1010A000ADF1080C6DE904CE00F006F8DDF804E0BF
:1010B000DDE9022304B070472DE9F0478C460E4667
:1010C0000446089D002B50D18A4217466CD9B2FACB
:1010D00082FEBEF1000F0BD0CEF1200420FA04F402
:1010E00001FA0EF644EA060C02FA0EF700FA0EF4C4
:1010F0004FEA1749220CBCFBF9F01FFA87F809FBED
:1011000010C642EA064600FB08F3B34209D9F619B5
:1011100000F1FF3280F02281B34240F21F81023899
:101120003E44F61AA2B2B6FBF9F309FB136642EA93
:10113000064403FB08F8A04509D9E41903F1FF327E
:1011400080F00A81A04540F20781023B3C44C8EB95
:10115000040443EA00400021002D62D024FA0EF47A
:1011600000232C606B60BDE8F0878B4207D9002D0F
:1011700055D0002185E841000846BDE8F087B3FA64
:1011800083F1002940F09080B34202D3824200F202
:10119000F880841A66EB03060120B446002D40D087
:1011A00085E81010BDE8F08712B90127B7FBF2F708
:1011B000B7FA87FEBEF1000F35D1F31B4FEA17488F
:1011C0001FFA87FC0121B3FBF8F0220C08FB103654
:1011D00042EA06460CFB00F3B34207D9F61900F1C8
:1011E000FF3202D2B34200F2CE801046F61AA2B20B
:1011F000B6FBF8F308FB136642EA06440CFB03FC5B
:10120000A44507D9E41903F1FF3202D2A44500F244
:10121000B5801346CCEB040443EA00409CE7294622
:101220002846BDE8F087CEF1200106FA0EF307FA52
:101230000EF720FA01F94FEA1748CE4049EA0309B0
:10124000B6FBF8FA4FEA194408FB1A661FFA87FC46
:1012500044EA06430AFB0CF29A4200FA0EF40AD959
:10126000DB190AF1FF3180F087809A4240F28480D6
:10127000AAF1020A3B449B1A1FFA89F9B3FBF8F161
:1012800008FB113349EA034301FB0CF69E4207D9E0
:10129000DB1901F1FF326BD29E4269D902393B441E
:1012A0009B1B41EA0A418EE7C1F1200E22FA0EF49F
:1012B0008B40234320FA0EF706FA01F44FEA134C51
:1012C00026FA0EF63C43B6FBFCF9270C0CFB19661C
:1012D0001FFA83F847EA064609FB08F7B74202FA05
:1012E00001F200FA01FA08D9F61809F1FF3041D2EB
:1012F000B7423FD9A9F102091E44F61BA0B2B6FBC2
:10130000FCF40CFB146640EA064704FB08F8B845F9
:1013100007D9FF1804F1FF3028D2B84526D9023C7E
:101320001F4444EA0940C8EB0707A0FB02894F4568
:1013300044464E4614D329D065B3BAEB040367EB99
:10134000060707FA0EFECB40CF404EEA030385E8BE
:1013500088000021BDE8F0871346F8E61046E0E675
:10136000B8EB020469EB03060138E5E70446D8E769
:10137000114695E78146C0E78A467CE7023B3C443C
:1013800048E708460AE702383E442FE7C245E7D35C
:101390003E46D1E72946BDE8F08700BF03685A0002
:1013A0004CBF43F0004323F000431844704700BF94
:1013B00061B32DE9F84F01F1FF3A90460646D14658
:1013C000002707EB090404EBD4746410E5007119DD
:1013D0000846FFF7E3FFA245834605F108003044C5
:1013E00009D0FFF7DBFFC34500F1FF3005D84045CA
:1013F00009D2671CE5E7C34505D9A74202D004F12D
:10140000FF39DEE700210846BDE8F88F084670473F
:10141000012807D0022807D0044B00280CBF18462B
:101420000020704702487047024870471D1B0000AB
:10143000211B0000251B000030B5244B83B004465F
:101440008D1E7BB301A92846AFF3008020B301991C
:101450002A46FFF7ADFF0146F0B1FFF79FFF4B684B
:10146000A064012B12D0002B01F1040020DBFFF758
:1014700095FF0023E06423650368002B1CDBFFF766
:101480008DFF00232061184603B030BD0023236187
:101490000523184603B030BD0023236109231846F5
:1014A00003B030BD0A490B48091AC9100191CFE7B2
:1014B0000123E0642365DFE7C3F30360FFF7A8FFC0
:1014C0000028206114BF00230923DCE7000000008E
:1014D0003CBB0000C4B800000368DA0710B504463E
:1014E00006D49B0700F1480009D500F059FC236899
:1014F000590709D51A070ED5DB0613D510BD00F024
:1015000047FC23685907F5D404F1D00000F050FCE3
:1015100023681A07F0D404F5A87000F051FC236882
:10152000DB06EBD404F5E870BDE8104000F08CBC9D
:1015300003680BB11844704718467047092070477C
:10154000704700BF70B504460D4608E02B6C636120
:101550002A462369214601209847082808D1296C8A
:101560002046FFF769FF06460028EFD006F0BCFCD6
:101570000728FBD13046296CFFF7E2FF281D00F059
:10158000FBFB00BF2DE9F0470C1D064617460FCCAC
:10159000ADF5727D03AD0FC50FCC0FC50FCC0FC5D8
:1015A00094E80F0002ACD6F80C80D6F8189085E8C5
:1015B0000F0000233046216C2360FFF73DFF002F12
:1015C000054614BF0A2709277DB1A36B47F0100118
:1015D0008DE810023246636401203346C04778BB71
:1015E00028460DF5727DBDE8F087236C73614FF4DA
:1015F000F07221467AA800F041FE33697AAA31469A
:1016000038469847889B82468DE8100239466364C5
:10161000324633460120C04790B94FF4F0727AA9A0
:10162000204600F02BFEBAF1080F06D1216C30469F
:10163000FFF702FF09270546C6E7BAF1070F04D0F6
:1016400009200DF5727DBDE8F0872846216CFFF773
:1016500077FF03A800F090FB406C7047F0B5CB6BB0
:101660000B640E1D0F4604460FCEF9B001AD0FC539
:101670000FCE0FC50FCE0FC596E80F004FF0FF3607
:1016800085E80F00009606E023696A4621469847E0
:101690000828054608D110992046FFF7CDFE0028FE
:1016A000F2D0092079B0F0BD6846FFF715FF062D8E
:1016B000F7D139462046FFF745FF00BF30B4DD6B58
:1016C000C160826119461D64002230BC5AE700BF28
:1016D00070B5C66843690B6426B10122FFF752FF5B
:1016E00006F002FC03690A4604460D460146022044
:1016F0009847072807D0082803D129462046FFF736
:1017000021FF06F0F1FB3046296CFFF719FF281D79
:1017100000F032FBC2681AB1CA6B0A64002231E7DA
:101720009CE700BF704700BF836813B101460120EA
:101730001847704700B5042907D8DFE801F003090E
:10174000060909000BB90F2A05D902205DF804FB30
:1017500001205DF804FB00EB820218465368019AF1
:1017600013605DF804FB00BF10B584B0002303AC28
:101770000A4600941946FFF7DDFF039804B010BD38
:1017800000B5042907D8DFE801F0030906090900BC
:101790000BB90F2A05D902205DF804FB01205DF882
:1017A00004FB019900EB82020968516018465DF85C
:1017B00004FB00BF10B584B004AC002344F8042D32
:1017C0000A4600941946FFF7DBFF04B010BD00BFC6
:1017D000F0B5D36B1364151D07460E460FCDADF55E
:1017E0000F7D17AC0FC40FCD0FC40FCD0FC495E8FC
:1017F0000F004FF0FF3584E80F00169510E016A893
:10180000FFF7D8FF314616A8B84716AA694678B937
:10181000049B08209847052804460AD0092807D0C9
:1018200026996846FFF708FE6A460C210028E6D094
:10183000092416A8FFF750FE20460DF50F7DF0BDD8
:101840002DE9F04F0D46C96C8BB00C1D096807914E
:101850009146089400F0030B1E46002B64D1090248
:10186000032307918DF825608DF824302B6DBBF193
:10187000020F08BFAC6B13F0010343D100F0080066
:10188000C2B2039201932768002F3DD0022E47D0A9
:101890002788B4F802800434AB6C28F0010A0F21C9
:1018A00048469A44FFF760FF824537D827F0010386
:1018B0009A4450452CBF002001204FEA480808F008
:1018C000020807F0010748EA0708B8F1010F41D004
:1018D00038D3B8F1020F1DD1236823F000420292E1
:1018E000BBF1000F79D130B10399002900F081805C
:1018F000002A00F0A880002B79DB029B013304EB67
:101900008304C0E700230193022E40DDFFF716FE9B
:10191000002842D009200BB0BDE8F08F0020CCE7B2
:10192000D4F804800834B7E7022B9FDC0B0CDAB242
:1019300009048DF82530022304EB820407918DF809
:10194000243093E7BBF1000F02D0002840F0B080B4
:10195000043498E7BBF1000F26D1B0B194E80C0035
:10196000991C4FEAD272D5D005F158010133069186
:1019700000F09480201DFFF7DBFD06AB01462846F2
:10198000AFF30080002840F0B88008347BE707A957
:10199000484600F0F3FA0028BCD1019B002B5CD133
:1019A00008200BB0BDE8F08F0D2148462F6AFFF7E5
:1019B000DBFE8742E9D1AB6A9C42E6D12046FFF7C5
:1019C000EDFC0F2102464846FFF7F4FE48462A4642
:1019D0000021FFF7EFFE07209DE70D2148462F6A03
:1019E000FFF7C2FE874248D02368002B85DA043413
:1019F00083E7029B3BB305F15803271DCDF810B0D8
:101A0000DDF80C80DDF808A00596A3461C4602E030
:101A1000B245B04616D038460694FFF789FD06ABAE
:101A2000014600222846AFF3008008F10106043782
:101A30000028EDD0029B059E43455C46DDF810B0C2
:101A4000D2D100E05C4648460D21FFF78DFE069B93
:101A50002862AC626B6206205DE70F214846FFF703
:101A600083FE0E2102464846FFF7A4FE48462A4A56
:101A70000F21FFF79FFE07204DE7AB6A9C42B3D1D1
:101A800004220027A3180299A962EF622A636B63FC
:101A90002368BB421FDB012301932EE748460D213B
:101AA000FFF762FE2862069B6B62AC62062032E79B
:101AB0002046FFF773FC04340646AC632846AFF3B8
:101AC000008000283FF426AF484632460F21FFF73A
:101AD00071FE07201FE70846013004EB8000FFF786
:101AE0005DFC0F2102464846FFF764FE48462A4641
:101AF0003946FFF75FFE07200DE707460D214846F0
:101B0000FFF732FE022F2862CDD12B46069A43F80A
:101B10002C2F6B62C9E700BF0000000000238FE696
:101B200001238DE602238BE6F0B50446C5B00429F7
:101B30000DD8DFE801F057030C310F00012B4FEAFD
:101B4000124695B266D17219102A40F29F80022087
:101B500045B0F0BD002BFAD1102AF8D82368D8067A
:101B600000F1C98022AE3046019200F077F9A06BF7
:101B7000019A0023012505FA03F1114203D00168FF
:101B800046F8231004300133042BF4D1A06330460F
:101B900000F05AF90020DBE7032BD8D1150C97B2DF
:101BA000EB19102BD3D823681E0700F1B88022AEA2
:101BB00030467F0000F026F906EBC5027B1EA56BC0
:101BC00057B1043A294651F8040B42F8040F013B7F
:101BD000581CF8D105EB87053046A56300F0F0F8F6
:101BE0000020B5E7002BB2D1A56B97B2201D0126CE
:101BF00006FA03F1394203F1010302D029680160BA
:101C00000435102B00F10400F2D112F400503BD146
:101C1000A5639DE7052B9AD17719202F97D80F2E12
:101C200065D92F46002D48D12A460027002AA06BEF
:101C300071DD00EBC202014644A800EBC6008C38FF
:101C400051F8045B40F8045F9142F9D1084697B11E
:101C5000102E324644A938BF102201EBC202A2F571
:101C6000C4727900043A00EB810150F8045B42F839
:101C7000045F8142F9D1012B47D00F2EA16332D9E5
:101C800017B102A800F094F8002061E70F2E3FF68C
:101C90005EAF00272268D1070DD522F00101052B88
:101CA00021600193204652D022F0030240F8482BD5
:101CB00000F072F8019B002F51D02268510736D4F2
:101CC000012B3ED00F2E06D822A8019300F06CF80D
:101CD000019B002FA8D002A8019300F06DF8019B92
:101CE000C6F11002A2E722A800F05AF8C8E7102FA8
:101CF000CFD9103FCEE723F01003236004F5E8703E
:101D0000019200F0ABF8019A2CE70431A16322A8FC
:101D100000F03EF8B8E7002F9AD10146ABE723F078
:101D20000803236004F5A87000F06CF83FE7204634
:101D300022F0040240F8D02B019300F03DF8019B03
:101D4000BEE722A8019300F027F8019BC8E741F005
:101D5000020140F8481B00F027F8019BABE7012B7C
:101D600003D00F2E3FF660AFAEE722A8019300F03C
:101D700013F8019B58E700BF00F1340191E83800E7
:101D80009C46A6464CF8045D90E8FF0FE54600BD72
:101D900090EC210B704700BF80EC210B704700BF17
:101DA00090EC200B704700BF80EC200B704700BF09
:101DB000D0EC200B704700BFC0EC200B704700BF79
:101DC000F0EC0201F0EC0211F0EC0221F0EC023137
:101DD000F0EC0241F0EC0251F0EC0261F0EC027127
:101DE000F0EC0281F0EC0291F0EC02A1F0EC02B117
:101DF000F0EC02C1F0EC02D1F0EC02E1F0EC02F107
:101E0000704700BFE0EC0201E0EC0211E0EC0221BF
:101E1000E0EC0231E0EC0241E0EC0251E0EC026166
:101E2000E0EC0271E0EC0281E0EC0291E0EC02A156
:101E3000E0EC02B1E0EC02C1E0EC02D1E0EC02E146
:101E4000E0EC02F1704700BFB0FC0181B0FC0191F1
:101E5000B0FC01A1B0FC01B1704700BFA0FC018142
:101E6000A0FC0191A0FC01A1A0FC01B1704700BF42
:101E7000EC4600B52DE900502DE9FF1F4FF000039F
:101E80002DE90C0001A9FFF7E9FBDDF840E012B0F5
:101E9000704700BFEC4600B52DE900502DE9FF1F4B
:101EA0004FF000032DE90C0001A9FFF711FCDDF84C
:101EB00040E012B0704700BFEC4600B52DE900507D
:101EC0002DE9FF1F4FF000032DE90C0001A9FFF7DA
:101ED00021FCDDF840E012B0704700BFEC4600B5D1
:101EE0002DE900502DE9FF1F4FF000032DE90C00F4
:101EF00001ABFFF7E3FBDDF840E012B0704700BF35
:101F0000EC4600B52DE900502DE9FF1F4FF000030E
:101F10002DE90C0001AAFFF75BFCDDF840E012B0F0
:101F2000704700BF037A1BB9437A43B9B0207047AA
:101F30005A1E036802721A020260180E7047426845
:101F4000013B10B4437213680321141D01721A027D
:101F5000446002605DF8044B180E704700B585B010
:101F600003AA0023009219460C22FFF7E3FB039813
:101F700005B05DF804FB00BFF0E700BF2DE9F043BA
:101F8000064685B00D464FF000082846FFF7CAFF09
:101F9000B028044600F0B48020F07F0313F0FF0364
:101FA00020D000F0F003802B7AD0902B35D0A02BDE
:101FB00048D0B02B5CD0C02B00F0898000F0F80333
:101FC000D02B0BD100F00702013242F4002205238E
:101FD00001213046FFF7A8FD0028D6D0092005B022
:101FE000BDE8F0830DF10C0919468700CDF800908B
:101FF0000D223046FFF79EFBFFB2039BCDF8009009
:10200000043760064CBFDF1BFF18002319460D2262
:1020100030460397FFF7B4FBB7E700F00D030D2B35
:10202000DCD003AF002300F00F02194600973046C2
:10203000FFF780FB0023009719460D223046FFF77B
:102040009FFBA2E7C2434FF47F6302F0070243FA0B
:1020500002F2010702EA03024FF0000348BF42F414
:10206000804219463046FFF75FFD0028B6D18CE765
:10207000B1284AD0B22853D0B32800F0818000F0B4
:10208000FC03B42BAAD000F007020132012342F472
:10209000002219463046FFF747FD00289ED174E71D
:1020A0002846FFF73FFF24022043B0F5004F95D0AC
:1020B00004010023A2B219463046FFF735FD00287F
:1020C0008CD114F4004F18BF4FF001085DE7C6280B
:1020D00062D0C7286CD000F0F803C02B7BD0C82892
:1020E00000F09180C9287FF479AF2846FFF71AFFE6
:1020F000020300F00F0002F470220130024366E791
:10210000B8F1000F6ED0002069E72846FFF70AFFFC
:10211000024600283FF462AF10F0F003B9D05DE74B
:1021200000230DF10C090D221946CDF80090304620
:10213000FFF700FB2846FFF7F5FE02064FF002040A
:102140000CD5039B00F07F00A04003442846039376
:10215000FFF7E8FE030604F10704F2D4039BCDF871
:10216000009000F07F0000FA04F203F501740023F0
:10217000144419460D2230460394FFF701FB04E78F
:102180002846FFF7CFFE010300F00F0001F4702195
:10219000421C01230A437CE72846FFF7C3FE0103E4
:1021A00000F00F0001F47021421C03230A4370E782
:1021B0002846FFF7B7FE024600283FF40FAF10F0A5
:1021C000F0037FF40BAF04213046FFF7ADFC00288D
:1021D0007FF404AFD9E600F00F020132032342F48A
:1021E000202256E703AC43460E2241460094304677
:1021F000FFF7A0FA0094304643460F224146FFF70E
:10220000BFFA4046EBE62846FFF78CFE00F0F002EE
:1022100000F00F031032013343EA0232D7E600BF69
:1022200010B5C36C84B05A6803208DF80C00DC79BB
:102230008DF80D4012020833084601A9019202935D
:10224000FFF79CFE04B010BD08B5FFF795FE806C4B
:1022500008BD00BF08B5FFF78FFEC36CD87903EB4C
:102260008000083008BD00BF08B505F03DFE00BF86
:1022700008B5FFF7F9FF00BF704700BF844641EA89
:10228000000313F003036DD1403A41D351F8043BEE
:1022900040F8043B51F8043B40F8043B51F8043B40
:1022A00040F8043B51F8043B40F8043B51F8043B30
:1022B00040F8043B51F8043B40F8043B51F8043B20
:1022C00040F8043B51F8043B40F8043B51F8043B10
:1022D00040F8043B51F8043B40F8043B51F8043B00
:1022E00040F8043B51F8043B40F8043B51F8043BF0
:1022F00040F8043B51F8043B40F8043B51F8043BE0
:1023000040F8043B51F8043B40F8043B403ABDD24E
:10231000303211D351F8043B40F8043B51F8043BF0
:1023200040F8043B51F8043B40F8043B51F8043BAF
:1023300040F8043B103AEDD20C3205D351F8043B7F
:1023400040F8043B043AF9D2043208D0D2071CBF4B
:1023500011F8013B00F8013B01D30B880380604674
:10236000704700BF082A13D38B078DD010F00303EA
:102370008AD0C3F10403D21ADB071CBF11F8013B5A
:1023800000F8013B80D331F8023B20F8023B7BE7A9
:10239000043AD9D3013A11F8013B00F8013BF9D2D4
:1023A0000B7803704B7843708B788370604670476E
:1023B00001F0FF01102A2BDB10F0070F08D010F8F6
:1023C000013B013A8B422DD010F0070F42B3F6D1FA
:1023D000F0B441EA012141EA014122F007047FF013
:1023E00000070023F0E80256083C85EA010586EA6A
:1023F000010685FA47F5A3FA87F586FA47F6A5FAA6
:1024000087F68EB9EED1F0BC01F0FF0102F00702B1
:1024100032B110F8013B013A83EA010313B1F8D15C
:102420000020704701387047002D06BF354603383D
:10243000073815F0010F07D1013015F4807F02BF76
:10244000013015F4C03F0130F0BC0138704700BFC7
:10245000000000000000000000000000000000007C
:10246000000000000000000000000000000000006C
:10247000000000000000000000000000000000005C
:1024800090F800F06DE9024520F007016FF0000CB4
:1024900010F0070491F820F040F049804FF000045C
:1024A0006FF00700D1E9002391F840F000F1080037
:1024B00082FA4CF2A4FA8CF283FA4CF3A2FA8CF36F
:1024C0004BBBD1E9022382FA4CF200F10800A4FAD6
:1024D0008CF283FA4CF3A2FA8CF3E3B9D1E904232A
:1024E00082FA4CF200F10800A4FA8CF283FA4CF361
:1024F000A2FA8CF37BB9D1E9062301F1200182FA1B
:102500004CF200F10800A4FA8CF283FA4CF3A2FA20
:102510008CF3002BC6D0002A04BF04301A4612BA2E
:10252000B2FA82F2FDE8024500EBD2007047D1E931
:10253000002304F00305C4F100004FEAC50514F0C0
:10254000040F91F840F00CFA05F562EA05021CBF91
:1025500063EA050362464FF00004A9E780B584B042
:1025600000AFF860B9607A60BB680F2B06D90A4BE0
:102570000A4A40F2E2210A4805F0BEFCFA68BB684C
:102580005B01134403F5805310337A681A6000BF6F
:102590001037BD4680BD00BF74AA000018AC000013
:1025A000A0AA000080B584B000AFF860B9601346FF
:1025B000FB71BB680F2B06D90C4B0D4A4FF46071B1
:1025C0000C4805F099FCBB685B0103F58053183398
:1025D000FA681344043303F104735B010433FA799A
:1025E00092B21A8000BF1037BD4680BD74AA0000A9
:1025F00034AC0000A0AA000090B587B000AFF8602E
:102600007A603B600B46FB7200237B61FB681B68B2
:10261000022B00F04D81032B00F0DF81012B00F035
:102620009580954B00221A60934B1B68934A52F891
:102630002330002B41D1904B1B68914ADB0013449F
:1026400000229A718C4B1B688D4ADB0013440022D8
:102650001A71894B1B688A4ADB00134400225A71A5
:10266000854B1B68864A4FF4964142F83310824BE3
:102670001B68184601F08CFB7F4B1B689B01814A4D
:1026800013448149184604F0F7F97B4B18687A4BDC
:102690001A6813461B019B1A9B007C4A9918764BBB
:1026A0001B68DB00764A13441A4604F0D7FF724BCE
:1026B0001B68724A012142F823107B68B3F1FF3F87
:1026C00020D06D4B1A68724913469B0013449B003F
:1026D0000B4400221A60684B1A686D4913469B0030
:1026E00013449B000B4408336A4A1A60624B1A6811
:1026F000674913469B0013449B000B440C33664A06
:102700001A6015E05C4B1A68614913469B0013443C
:102710009B000B44043309221A60574B1A685C492A
:1027200013469B0013449B000B4410335B4A1A6012
:10273000514B1B68504A1268594941F823204E4BAF
:102740001B689B00564A13447B61F5E14A4B01220A
:102750001A60494B1B68494A52F82330002B41D17B
:10276000454B1B68464ADB00134400229A71424BDA
:102770001B68434ADB00134400221A713E4B1B685E
:102780003F4ADB00134400225A713B4B1B683C4A12
:102790004FF4E13142F83310374B1B68184601F013
:1027A000F7FA354B1B689B01364A134436491846E5
:1027B00004F062F9304B18682F4B1A6813461B015E
:1027C0009B1A9B00314A99182B4B1B68DB002C4A43
:1027D00013441A4604F042FF274B1B68274A012185
:1027E00042F823107B68B3F1FF3F20D0224B1A68D8
:1027F000274913469B0013449B000B4400221A6098
:102800001D4B1A68224913469B0013449B000B443E
:102810000833244A1A60184B1A681D4913469B0056
:1028200013449B000B440C331F4A1A6015E0124BF3
:102830001A68174913469B0013449B000B4404334A
:1028400000221A600C4B1A68114913469B0013446E
:102850009B000B441033154A1A60074B1B68064A4D
:1028600012680F4941F82320034B1B689B000C4A58
:1028700013447B6160E100BFB40C0020B80C002061
:10288000D40B0020EC080020000000206C0A00207F
:102890000C0C0020E0080020E0080020E0080020E8
:1028A0009C0C0020E0080020E0080020EC0800203C
:1028B000824B02221A60814B1B68814A52F82330F6
:1028C000002B41D17D4B1B687E4ADB001344002264
:1028D0009A717A4B1B687B4ADB00134400221A7101
:1028E000764B1B68774ADB00134400225A71734B06
:1028F0001B68744A4FF4E13142F833106F4B1B6888
:10290000184601F045FA6D4B1B689B016E4A134453
:102910006E49184604F0B0F8684B1868674B1A689F
:1029200013461B019B1A9B00694A9918634B1B684D
:10293000DB00644A13441A4604F090FE5F4B1B68A8
:102940005F4A012142F823107B68B3F1FF3F20D09A
:102950005A4B1A685F4913469B0013449B000B4473
:1029600000221A60554B1A685A4913469B001344BB
:102970009B000B440833584A1A60504B1A6855495B
:1029800013469B0013449B000B440C33534A1A60BC
:1029900015E04A4B1A684F4913469B0013449B00AD
:1029A0000B44043300221A60444B1A684949134609
:1029B0009B0013449B000B441033494A1A603F4B61
:1029C0001B683E4A1268474941F823203B4B1B686D
:1029D0009B00444A13447B61AEE0384B03221A60EB
:1029E000364B1B68364A52F82330002B41D1334B0B
:1029F0001B68344ADB00134400229A712F4B1B687A
:102A0000304ADB00134400221A712C4B1B682D4AFC
:102A1000DB00134400225A71284B1B68294A4FF4EB
:102A2000E13142F83310254B1B68184601F0B0F92C
:102A3000224B1B689B01244A13442449184604F086
:102A40001BF81E4B18681D4B1A6813461B019B1A76
:102A50009B001F4A9918194B1B68DB00194A134445
:102A60001A4604F0FBFD154B1B68154A012142F87C
:102A700023107B68B3F1FF3F3AD0104B1A68154919
:102A800013469B0013449B000B4400221A600B4B1F
:102A90001A68104913469B0013449B000B440833EB
:102AA000114A1A60054B1A680A4913469B001344E1
:102AB0009B000B440C330D4A1A602FE0B40C00202D
:102AC000B80C0020D40B0020EC08002000000020EF
:102AD0006C0A00200C0C0020E0080020E008002018
:102AE000EC0800209C0C0020E0080020E0080020FA
:102AF0002A4B1A682A4913469B0013449B000B4437
:102B0000043300221A60254B1A68254913469B009E
:102B100013449B000B441033224A1A601F4B1B685E
:102B20001E4A1268204941F823201C4B1B689B0059
:102B30001D4A13447B6100BF7B68B3F1FF3F28D07F
:102B4000164B1A6813461B019B1A9B002833174A21
:102B50001344181D114B1B681A46154903F0CAFF90
:102B60000E4B18680D4B1A680D4913469B00134411
:102B70009B000B4408331C68084B1A68084913462D
:102B80009B0013449B000B441B681A46214600F02F
:102B90007BF87B6918461C37BD4690BDB40C0020FD
:102BA0000C0C0020EC0800209C0C00206C0A00207B
:102BB000352D000080B483B000AF78603960002309
:102BC00018460C37BD465DF8047B704780B483B06F
:102BD00000AF7860084611461A460346FB700B4664
:102BE000BB7013467B70002318460C37BD465DF85A
:102BF000047B704780B586B000AFF860B9607A603A
:102C0000FB683B613B69002B2AD03B691B680021B4
:102C1000184604F0E9FD0346082B21D03B691A68E9
:102C2000134913469B0013449B000B4410331B684D
:102C30007A68B9681846FFF721FB3B6918683B6959
:102C40001A680B4913469B0013449B000B44103336
:102C50001B687A68194604F0A3FD0346FB7501E082
:102C60002023FB75FB7D18461837BD4680BD00BF8D
:102C70000C0C002080B483B000AF786000BF0C372C
:102C8000BD465DF8047B704780B588B000AFF86042
:102C9000B9607A60FB68052B06D9214B214A40F2C6
:102CA0008911214805F028F9204AFB6852F82330A1
:102CB000FB61FB6993F82C301B09DBB21A461C4BF5
:102CC00053F82230BB61FB6993F82C3003F00F03FB
:102CD0007B61FB695B78DBB2002B01D009231AE032
:102CE000FB6901225A70BB681A467969B869FFF717
:102CF00035FC7A687969B86903F012FD01227969B7
:102D0000B869FFF74FFC7B69DBB201221946B8694D
:102D100003F097FC002318462037BD4680BD00BF56
:102D2000D8AA0000F4AB0000F8AA0000D43C0020B0
:102D300098B3000080B582B000AF78600B46FB709E
:102D40007B68184600F004F800BF0837BD4680BD18
:102D500080B586B000AF78607B68052B06D93D4B07
:102D60003D4A40F2AD113D4805F0C6F83C4A7B684B
:102D700052F823307B617B6993F82C301B09DBB25E
:102D80001A46384B53F822303B617B6993F82C305C
:102D900003F00F03FB600022F9683869FFF702FCBB
:102DA000FB68DBB200221946386903F04AFC7B69F4
:102DB000DB78DBB2002B04D07B691033184603F0BC
:102DC000D7F97B6900225A70274A7B681344012295
:102DD0001A70264A7B6852F82330002B1BD12449F5
:102DE0007A6813469B0013449B000B440C3318680D
:102DF0001F497A6813469B0013449B000B441B68D1
:102E00001A4601467868FFF73FFF184A7B680121A0
:102E100042F823101AE016497A6813469B001344BF
:102E20009B000B440833186811497A6813469B00CD
:102E300013449B000B441B681A4601467868FFF751
:102E400023FF0A4A7B68002142F8231000BF18378D
:102E5000BD4680BDD8AA00004CAC0000F8AA000016
:102E6000D43C002098B30000040C0020840C002007
:102E70000C0C002090B587B000AF4023FB604FF0F2
:102E800000034FF00004C7E90434FB68202B0BD18A
:102E900000F020F810EE103A1846FDF797FD0346B3
:102EA0000C46C7E9043407E0094B7B6000233B6014
:102EB000D7E90034C7E90434D7E9043444EC173BBC
:102EC000B0EE470AF0EE670A1C37BD4690BD00BF62
:102ED0000000F07F80B483B000AF4FF0FF437B6011
:102EE0007B6807EE903AB0EE670A0C37BD465DF896
:102EF000047B704790B587B000AF4023FB604FF074
:102F000000034FF00004C7E90434FB68202B0BD109
:102F100000F020F810EE103A1846FDF757FD034672
:102F20000C46C7E9043407E0094B7B6000233B6093
:102F3000D7E90034C7E90434D7E9043444EC173B3B
:102F4000B0EE470AF0EE670A1C37BD4690BD00BFE1
:102F50000000F0FF80B483B000AF064B7B607B685D
:102F600007EE903AB0EE670A0C37BD465DF8047B79
:102F7000704700BF000080FF90B587B000AF4023CE
:102F8000FB604FF000034FF00004C7E90434FB6816
:102F9000202B0BD100F020F810EE103A1846FDF768
:102FA00015FD03460C46C7E9043407E0094B7B6076
:102FB00000233B60D7E90034C7E90434D7E904347F
:102FC00044EC173BB0EE470AF0EE670A1C37BD46EB
:102FD00090BD00BF0000F8FF80B483B000AF4FF099
:102FE00000037B60054B7B607B6807EE903AB0EE98
:102FF000670A0C37BD465DF8047B70470000C0FFD0
:1030000080B582B000AF7860FFF7B6FFB0EE407ACF
:10301000F0EE607A164B83ED007BFFF7DDFFF0EEFC
:10302000407A144BC3ED007AFFF724FFB0EE407AEC
:10303000F0EE607A104B83ED007BFFF74BFFF0EE74
:10304000407A0E4BC3ED007AFFF754FFB0EE407AA2
:10305000F0EE607A0A4B83ED007BFFF77BFFF0EE2A
:10306000407A084BC3ED007A00BF0837BD4680BDEB
:10307000E00C0020F00C0020D00C0020E80C002018
:10308000D80C0020EC0C002090B583B000AF87ED89
:10309000000B0F4BD3E900341A462346D7E9000151
:1030A000FDF750FF0346002B0BD10A4BD3E9003448
:1030B0001A462346D7E90001FDF744FF0346002BDB
:1030C00001D0012300E0002318460C37BD4690BD17
:1030D000D00C0020D80C002080B582B000AF87ED66
:1030E000000BD7E90023D7E90001FDF72BFF0346CA
:1030F000002B01D1012300E0002318460837BD460C
:1031000080BD00BF90B585B000AF78607B681A685D
:10311000224BA2FB0334111B49080B191B0C20493D
:1031200001FB03F3D31A44F2A71202FB03F3FB6083
:103130007B681A68194BA3FB0213D21A5208134476
:103140001B0C40F6143202FB03F3BB60FA68BB6849
:103150009A4208D2FA68BB68D31A03F10043013BD4
:103160007A68136004E0FA68BB68D21A7B681A6058
:103170007B681B681846FDF707FC4FF400124FF000
:103180007853FDF777FC03460C4644EC173BB0EE52
:10319000470AF0EE670A1437BD4690BDBD169C067F
:1031A0001DF3010080B483B000AF78600B46FB7064
:1031B0007B68FA781A7000BF0C37BD465DF8047B57
:1031C000704700BF80B582B000AF78607B685B68F5
:1031D000012B08D17B681B7A002B04D07B681B690C
:1031E0001846FFF747FD00BF0837BD4680BD00BF4A
:1031F00080B582B000AF78607868FFF7E3FF00BF6A
:103200000837BD4680BD00BF80B582B000AF786092
:103210007B681B78002B06D101217868FFF7C2FF7D
:103220007868FFF7E5FF00BF0837BD4680BD00BFE7
:10323000B0B584B000AF454BD3E9063418462146FB
:10324000FDF7D2FE0246424B1A60404BD3E90834E8
:1032500018462146FDF7C8FE02463D4B5A6004223F
:103260003B493C48FFF70AF804223B493B48FFF73B
:1032700005F801223A493B48FFF700F80123FB73A8
:103280000EE03B1D092233491846FEF7F7FF2F4B8E
:103290001B69391D09221846FFF7ACFC0346FB7376
:1032A000FB7B002BEDD1304BD3E902012E4BD3E950
:1032B00000341A462346FDF729FA03460C462546F4
:1032C0001C462A48FFF71EFF53EC102B20462946C8
:1032D000FDF7D0FB03460C4618462146224BD3E9A6
:1032E00000341A462346FDF713FA03460C46174AE4
:1032F000C2E906341C4BD3E908011B4BD3E9063461
:103300001A462346FDF702FA03460C4625461C469C
:103310001748FFF7F7FE53EC102B20462946FDF720
:10332000A9FB03460C46184621460F4BD3E9063449
:103330001A462346FDF7ECF903460C46034AC2E958
:10334000083400BF1037BD46B0BD00BF100D0020CF
:10335000F40C0020FC0C0020F80C0020000D0020D4
:1033600038000020040D002008000020380D002047
:103370003C0D0020000000002DE9B0438CB000AFF0
:103380000820FFF73DFEBA4B00221A6018220021E8
:10339000B84805F003F930220021B74805F0FEF8DF
:1033A000B54B01221A70B44B00225A60B24B002276
:1033B0001A70B14BFB61B04B00221A72AE4B012266
:1033C0005A60AC4B4FF0FF325A610023FB60A94BAF
:1033D0005A6907F10C000A230021FFF70DF9024694
:1033E000FB691A61A44B1B694FF4E1311846FFF7E2
:1033F000E1FB0123FB760023BB769F4B1869FB7E24
:10340000BA7E0821FFF7E2FB9B4B01221A729B4B0D
:1034100093ED047BB0EE470AF0EE670A04F004FB7C
:10342000B0EE407AF0EE607A87ED087B97ED080BFE
:10343000FFF752FE0346002B06D197ED080BFFF76E
:1034400023FE0346002B06D04FF000024FF000038E
:10345000C7E908230BE09FED841B97ED080B04F0F0
:1034600073FBB0EE407AF0EE607A87ED087B4FF0A8
:1034700000024FF00003D7E90801FDF76DFD034698
:10348000002B0CD03B6A3B607B6A83F000437B607F
:10349000D7E90001FDF788FD03465B4204E0D7E968
:1034A0000801FDF781FD0346FB62FB6A1B0C7B6193
:1034B000FB6A03F400433B617B691B04FA6AD21A7E
:1034C0003B6913441A043B691A447B691344FB6249
:1034D000FB6A002B02D16A4BFB6205E0FB6A694A7A
:1034E000934201D9674BFB62634AFB6A9362634B69
:1034F000D3E90201614BD3E90023FDF707F9024646
:103500000B46904699466048FFF7FCFD53EC102BA4
:1035100040464946FDF7AEFA02460B4610461946AC
:10352000564BD3E90023FDF7F3F802460B46524908
:10353000C1E90623514B93ED0A7BB0EE470AF0EE4A
:10354000670A04F071FAB0EE407AF0EE607A87ED27
:10355000087B97ED080BFFF7BFFD0346002B06D154
:1035600097ED080BFFF790FD0346002B06D04FF0B8
:1035700000024FF00003C7E908230BE09FED3A1B60
:1035800097ED080B04F0E0FAB0EE407AF0EE607AC6
:1035900087ED087B4FF000024FF00003D7E90801E8
:1035A000FDF7DAFC0346002B0AD03C6A7B6A83F005
:1035B000004520462946FDF7F7FC03465B4204E040
:1035C000D7E90801FDF7F0FC0346FB62FB6A1B0C20
:1035D0007B61FB6A03F400433B617B691B04FA6A6D
:1035E000D21A3B6913441A043B691A447B69134499
:1035F000FB62FB6A002B02D1214BFB6205E0FB6AF8
:10360000204A934201D91F4BFB621B4AFB6AD362DB
:103610001A4BD3E90801194BD3E906341A4623465D
:10362000FDF774F803460C4625461C461748FFF77D
:1036300069FD53EC102B20462946FDF71BFA034683
:103640000C46184621460D4BD3E906341A4623464C
:10365000FDF75EF803460C46074AC2E9083400BF8E
:103660003037BD46BDE8B083000000000000F041E7
:10367000400D0020F40C0020100D00200800002058
:1036800082B73144FEFFFF7F380D00203C0D002043
:1036900080B500AF0248FFF7B7FD00BF80BD00BF97
:1036A000100D002080B489B000AF284BFB60284A81
:1036B000284B9A4216D00023FB610AE0254AFB6999
:1036C00052F823202249FB6941F82320FB6901338A
:1036D000FB61FB689A08FB699A42EFD81E4B1C4AB3
:1036E0009A6002E01C4B1B4A9A601C4BBB611C4B4E
:1036F0007B611C4BBB60BA687B69D31AFB6107E036
:10370000BB695A1CBA617A69511C796112781A70C6
:10371000FB695A1EFA61002BF2D1134B3B61134B2C
:103720007B607A683B69D31AFB6104E03B695A1CF1
:103730003A6100221A70FB695A1EFA61002BF5D11A
:1037400000BF2437BD465DF8047B704700000000D1
:10375000000000000000000000ED00E0000000207C
:1037600048BB000008C40000C0080020A43D0020A1
:1037700080B400AF6B4A6B4BD3F8883043F47003CE
:10378000C2F88830684B4CF22052DA81664B4DF615
:103790002812DA81644B4FF4E9721A80634B1B786C
:1037A000DBB203F00103002B0FD0614B9B78DBB23F
:1037B00003F00803002B2ED05D4A5D4B9B78DBB2F3
:1037C00043F00803DBB2937025E05A49594B03F5E7
:1037D00081531C331B6843F0005201F581531C33A5
:1037E0001A60554B1B6903F48073002B13D1524AA6
:1037F000514B1B6923F47C5343F4407313614E4ACD
:103800004D4B1B6943F4807313614B4A4A4B1B6950
:1038100023F400731361494B2A221A70454B03F5B8
:10382000825304334FF08A721A60424A414B1B683C
:1038300023F4402343F4002313603E493D4B03F53A
:10384000805304331B6823F4403343F4803201F582
:10385000805304331A603749364B03F581531833CC
:103860001B6843F4007201F5815318331A60344A1F
:10387000334B9B6C23F0807323F4E0639364314BF0
:1038800000221A722F4A2F4B5B78DBB223F06003C1
:10389000DBB243F02003DBB253702B4B80221A7053
:1038A000284B00221A73274BBA221A7000BF254BEF
:1038B0009B79DBB203F01003002BF8D1214A214B96
:1038C000DB78DBB203F01F03DBB2D3701D4B132296
:1038D0001A711C4B18225A711A4A1A4B5B79DBB2C7
:1038E00043F04003DBB2537100BF164B9B79DBB250
:1038F00003F04003002BF8D0124A124B1B78DBB2C6
:1039000003F03F03DBB2137000BF0E4B9B79DBB2B9
:1039100003F00C030C2BF8D100BFBD465DF8047B0F
:10392000704700BF00ED00E00020054000F00740B8
:1039300000D007400070044000D0034000E0074082
:1039400000900440004006400050064080B483B020
:1039500000AF964B1B78DBB203F0C003002B40F0A6
:10396000D280924B5B79DBB203F04003002B40F036
:10397000AD808E4B1B78DBB203F00403002B4ED1DD
:103980008A4B1B7BDBB203F00303002B02D0012B1D
:1039900003D006E0864B7B6006E04FF400437B607B
:1039A00002E0844B7B6000BF804B5B78DBB203F0AE
:1039B0003003002B23D07D4B1B7BDBB203F00303D2
:1039C000012B1CD0794B1B78DBB203F03803302B72
:1039D00005D0382B07D14FF4C0637B800EE04FF445
:1039E000A0637B800AE0714B1B78DBB203F03803E5
:1039F000DB08202202FA03F37B8000BF09E06B4B57
:103A00001B78DBB203F03803DB08012202FA03F370
:103A10007B807B887A68B2FBF3F37B6002E04FF433
:103A200000437B60614BDB78DBB203F0E003602B8B
:103A300029D0602B06D8202B17D0402B1CD0002B70
:103A40000CD09DE0A02B2CD0A02B02D8802B21D015
:103A500096E0C02B2CD0E02B31D091E07A68134651
:103A60009B001344DB017B608AE07A6813469B006D
:103A700013441B027B6083E07A6813461B019B1A88
:103A8000DB017B607CE07A6813469B0013445B0299
:103A90007B6075E07B684FF4377202FB03F37B6059
:103AA0006EE07B684FF4B76202FB03F37B6067E074
:103AB0007B6840F6950202FB03F37B6060E07B6865
:103AC00040F6713202FB03F37B6059E0374B1B7900
:103AD000DBB29BB203F01F039BB201337B807B8878
:103AE000334AB2FBF3F37B60304B5B79DBB29BB2C2
:103AF00003F01F039BB218337B807A887B6802FB3C
:103B000003F37B603CE0294B1B78DBB203F0C0037E
:103B1000402B1AD1254B5B78DBB203F00103002B5D
:103B200003D14FF400437B602AE0204B1B7ADBB2C9
:103B300003F00E035B08012202FA03F37B807B880B
:103B40001D4AB2FBF3F37B601AE0184B1B78DBB223
:103B500003F0C003802B22D1144B1B7BDBB203F09C
:103B60000303002B02D0012B03D006E0104B7B6037
:103B700006E04FF400437B6002E00E4B7B6000BF29
:103B80000E4B03F5825304331B6803F070431B0F85
:103B900001337A68B2FBF3F3094A136000E000BF17
:103BA0000C37BD465DF8047B704700BF00400640FF
:103BB00080F0FA02006CDC0200093D000070044055
:103BC0004000002080B584B000AFF860B9601346B3
:103BD000FB71BB681F2B05D90D4B0E4AFF210E4808
:103BE00004F08AF9FB68BA6853F8223023F0807336
:103BF00023F4E063FA79120202F4E06243EA02017C
:103C0000FB68BA6843F8221000BF1037BD4680BD7C
:103C100060AB00008CAC00006CAB000080B483B0E3
:103C200000AF78600B46FB707B68FA781A7000BFB3
:103C30000C37BD465DF8047B704700BF80B584B08B
:103C400000AF3B4600221A605A609A60DA60064B69
:103C50003B6002237B723B461946002002F0A0FB2A
:103C600000BF1037BD4680BD80F0FA0280B584B039
:103C700000AF074A3B1D07CA83E807003B1D1946F2
:103C8000002002F0D9FB00BF1037BD4680BD00BF49
:103C9000A4AB000080B500AF2A210848FFF7BEFFA3
:103CA000002212210648FFF78DFFFFF7C7FFFFF73D
:103CB000DDFF044802F030FC00BF80BD00E007409B
:103CC0000090044074AC000080B582B000AF02F0F8
:103CD00089FA0023FB7106E0FB79184602F06AFCC2
:103CE000FB790133FB71FB79042BF5D9FFF7D2FF88
:103CF00000BF0837BD4680BD80B584B000AFF86016
:103D0000B9601346FB71BB681F2B05D90D4B0E4ADA
:103D1000FF210E4804F0F0F8FB68BA6853F822302F
:103D200023F0807323F4E063FA79120202F4E06274
:103D300043EA0201FB68BA6843F8221000BF10375B
:103D4000BD4680BDB0AB0000A0AC0000BCAB000025
:103D500080B483B000AF78600B46FB707B6803F5DE
:103D600081530833FA785209D2B29200134403F116
:103D70000473DA00FB7803F01F0313449B001A4618
:103D80000123136000BF0C37BD465DF8047B70470C
:103D900080B584B000AF786089215D48FFF7D8FF17
:103DA0008A215B48FFF7D4FF8B215948FFF7D0FFEA
:103DB0008C215748FFF7CCFF8D215548FFF7C8FFEE
:103DC0007B68032B00F2968001A252F823F000BF1B
:103DD000E13D0000533E00007D3E0000A73E000094
:103DE0000023FB600023BB60FB68002B05D103228E
:103DF00011214848FFF780FF10E0FB68012B05D137
:103E0000032202214448FFF777FF07E0FB68022BFB
:103E100004D1032207214148FFF76EFFBB68002B46
:103E200005D1032210213B48FFF766FF64E0BB6821
:103E3000012B05D1032201213748FFF75DFF5BE02D
:103E4000BB68022B58D1032206213448FFF754FFE8
:103E500052E00023FB600023BB60FB68002B04D111
:103E6000032204212E48FFF747FFBB68002B45D1F2
:103E7000032203212A48FFF73FFF3FE00023FB60B6
:103E80000023BB60FB68002B04D1032203212348DD
:103E9000FFF732FFBB68002B32D1032202211F48FB
:103EA000FFF72AFF2CE00023FB600023BB60FB68C8
:103EB000002B05D1032211211948FFF71DFF07E050
:103EC000FB68012B04D103220B211248FFF714FFDA
:103ED000BB68002B05D1032210211148FFF70CFF0E
:103EE00010E0BB68012B0DD103220A210948FFF71E
:103EF00003FF07E000BF06E000BF04E000BF02E0F0
:103F000000BF00E000BF00BF1037BD4680BD00BF4E
:103F10000070044000A004400090044000C0044031
:103F200000B0044080B500AF002002F081FE00BF69
:103F300080BD00BF80B500AF012002F079FE00BF58
:103F400080BD00BF80B500AF022002F071FE00BF4F
:103F500080BD00BF80B500AF032002F069FE00BF46
:103F600080BD00BF80B500AF042002F061FE00BF3D
:103F700080BD00BF80B500AF052002F059FE00BF34
:103F800080BD00BF80B500AF062002F051FE00BF2B
:103F900080BD00BF80B500AF072002F049FE00BF22
:103FA00080BD00BF80B500AF082002F041FE00BF19
:103FB00080BD00BF80B500AF092002F039FE00BF10
:103FC00080BD00BF80B500AF0A2002F031FE00BF07
:103FD00080BD00BF80B500AF0B2002F029FE00BFFE
:103FE00080BD00BF80B500AF0C2002F021FE00BFF5
:103FF00080BD00BF80B500AF0D2002F019FE00BFEC
:1040000080BD00BF80B500AF0E2002F011FE00BFE2
:1040100080BD00BF80B500AF0F2002F009FE00BFD9
:1040200080BD00BF80B500AF002002F09DFD00BF45
:1040300080BD00BF80B500AF002003F007FA00BFCD
:1040400080BD00BF80B500AF012003F0FFF900BFC5
:1040500080BD00BF80B500AF022003F0F7F900BFBC
:1040600080BD00BF80B500AF032003F0EFF900BFB3
:1040700080BD00BF80B500AF042003F0E7F900BFAA
:1040800080BD00BF80B500AF052003F0DFF900BFA1
:1040900080BD00BF80B400AFFEE700BF80B400AFBA
:1040A000FEE700BF80B400AFFEE700BF80B400AF02
:1040B000FEE700BF80B400AFFEE700BF80B400AFF2
:1040C000FEE700BF80B400AFFEE700BF80B400AFE2
:1040D000FEE700BF80B400AFFEE700BF80B400AFD2
:1040E000FEE700BF80B400AFFEE700BF80B400AFC2
:1040F000FEE700BF80B400AFFEE700BF80B400AFB2
:10410000FEE700BF80B400AFFEE700BF80B400AFA1
:10411000FEE700BF80B400AFFEE700BF80B400AF91
:10412000FEE700BF80B400AFFEE700BF80B400AF81
:10413000FEE700BF80B400AFFEE700BF80B400AF71
:10414000FEE700BF80B400AFFEE700BF80B400AF61
:10415000FEE700BF80B400AFFEE700BF80B400AF51
:10416000FEE700BF80B400AFFEE700BF80B400AF41
:10417000FEE700BF80B400AFFEE700BF80B400AF31
:10418000FEE700BF80B400AFFEE700BF80B400AF21
:10419000FEE700BF80B400AFFEE700BF80B400AF11
:1041A000FEE700BF80B400AFFEE700BF80B400AF01
:1041B000FEE700BF80B400AFFEE700BF80B400AFF1
:1041C000FEE700BF80B400AFFEE700BF80B400AFE1
:1041D000FEE700BF80B400AFFEE700BF80B400AFD1
:1041E000FEE700BF80B400AFFEE700BF80B400AFC1
:1041F000FEE700BF80B400AFFEE700BF80B400AFB1
:10420000FEE700BF80B400AFFEE700BF80B400AFA0
:10421000FEE700BF80B400AFFEE700BF80B400AF90
:10422000FEE700BF80B400AFFEE700BF80B400AF80
:10423000FEE700BF80B400AFFEE700BF80B400AF70
:10424000FEE700BF80B400AFFEE700BF80B400AF60
:10425000FEE700BF80B400AFFEE700BF80B400AF50
:10426000FEE700BF80B400AFFEE700BF80B400AF40
:10427000FEE700BF80B584B000AF7860114B1B68CB
:10428000002B02D10F4B104A1A600E4B1B68FB60CB
:104290000C4B1A687B6813440C4A934207D903F00D
:1042A0004FFE02460C2313604FF0FF3306E0054B30
:1042B0001A687B681344034A1360FB68184610377A
:1042C000BD4680BD440D00200000FF1F00000020FF
:1042D00080B582B000AF7860034800F07FF900BF7E
:1042E0000837BD4680BD00BF403C002098B500AFF8
:1042F000094B0A4A1A600A4B0A4A1C1D13460FCB87
:1043000084E80F0000F0CAF80246054B1A60064B1D
:10431000034A1A6000BF98BD403C0020483C002082
:104320006C0D0020F4AC0000383C002080B582B059
:1043300000AF7860786800F07FF900BF0837BD46AD
:1043400080BD00BF80B586B002AF87ED010A38603E
:104350000223FB60FFF7CAFF164800F02FF903465F
:10436000BB60154800F02AF90346BB6000230093A8
:104370000023FA681149124800F066F80346BB6052
:104380000023104A0121104800F0A2F80346BB6048
:10439000D7ED017A9FED0D7A67EE877AFCEEE77A2A
:1043A00017EE901A084800F0BBF800BF1037BD4662
:1043B00080BD00BF403C0020383C00202D43000061
:1043C000483C0020D1420000480D002000007A4403
:1043D00080B400AFFEE700BF80B483B000AF786068
:1043E0007B68013B032B0FD801A252F823F000BFDA
:1043F000014400000344000005440000074400009D
:1044000003E002E001E000E000BFFEE7704700BF0C
:10441000704700BF0020002104460D46084803F005
:1044200089FD03F0CBFD2046294600F033FA05480C
:10443000002100F063FB00F0BDFA03F087FD0000EF
:104440006D7F0000F4AC000080B586B000AFF8606E
:10445000B9607A603B60FB68BA685A60FB687A684A
:104460009A60FB680122DA603A68FB681A61FB68AF
:104470000433396A184600F041FB0246FB681A60B3
:10448000FB681B68002B14BF01230023DBB27B6198
:104490007B6918461837BD4680BD00BF80B500AFA8
:1044A00000F07AFB0346184680BD00BF80B584B09B
:1044B00000AF786000F070FB0346FB60F86800F026
:1044C00077FB0346BB6000BF1037BD4680BD00BF11
:1044D00080B586B000AFF8607A603B600B46FB7237
:1044E000FB6803F10C02FB689A60FB687A685A600B
:1044F000FB680433F97A3A68184600F04DFC02462E
:10450000FB681A60FB681B68002B14BF01230023A3
:10451000DBB27B617B6918461837BD4680BD00BFA2
:1045200080B584B000AF786039607B681B683968FB
:10453000184600F063FC0346FB60FB681846103722
:10454000BD4680BD84B080B582B000AF07F1100ECB
:104550008EE80F003B69796A184600F021FD03469A
:104560007B607B6818460837BD46BDE8804004B0D4
:10457000704700BF84B080B500AF07F1080E8EE829
:104580000F00BB68F969184600F02AFD034618467B
:10459000BD46BDE8804004B0704700BF80B582B022
:1045A00000AF786039607B684FF0FF323968184699
:1045B00000F024FD78680837BD4680BD80B485B022
:1045C00000AF78607B6801225A600123FB60FB68C2
:1045D00018461437BD465DF8047B704780B584B03B
:1045E00002AF78607B681B687A68526801921A692A
:1045F00000920FCBFFF7A6FF034618460837BD46CB
:1046000080BD00BF80B584B002AF786039603B6880
:104610001B683A68526801921A6900920FCBFFF743
:10462000A9FF3B685A687B6811461846FFF7B6FF3A
:1046300078680837BD4680BD80B586B000AF786128
:10464000184B1B681B68002B0CBF01230023DBB237
:104650001A46154B1A7011E03B4614491846FFF7ED
:10466000D1FFFEF7E5FD0F4B1B681B68002B14BF45
:1046700001230023DBB21A460D4B1A700A4B1B783C
:10468000DBB2002BE8D1084B00221A70786900F0E9
:1046900011F80020FFF70AFF002318461837BD461F
:1046A00080BD00BF70AC000044000020403C0020F2
:1046B000343C002080B582B000AF7860074B012207
:1046C0001A60074B00221A70FEF7E2FF0548FFF759
:1046D00085FF002318460837BD4680BD5C3C00209E
:1046E00044000020383C002080B586B000AF7861DF
:1046F0003961FFF72BF9FFF7E7FA0A4B1B68002235
:104700001A60FEF739FE00209FED070AFFF71AFE38
:104710003B4606491846FFF775FF00231846183731
:10472000BD4680BD70AC00006F12833A383C00205B
:1047300000B5DFF80CC000DFDFF808C000DFFEE7DF
:10474000A14A0000B94A00002DE9F041334C23781A
:1047500053B1334B1B68FF229A70324A0020012369
:1047600010702370BDE8F0812F4B3048196800F0BD
:1047700055FD10B18520BDE8F08101F005FC284B06
:1047800021781B68FF229A700029E6D1284A136815
:10479000002B40D0556845B12A78002A39D1191D1F
:1047A000890089B2284600F0F9FD224B224A1E6892
:1047B000156066B35D68EA1C062A28D8DF68B7B1C1
:1047C00039461A4800F038FD804600B3291D41EAF9
:1047D000072130460023424601F06CFA054670B9C5
:1047E0004146124800F050FD144B1D60B5E7291DED
:1047F00030463B463A4601F05DFA054638B1104B6B
:10480000104A013D53F82550AB6A5A63ECE7002586
:10481000EAE70D46C9E71D46C7E700BF203D002077
:10482000643D0020213D0020D0AC00003830002045
:10483000E8AC0000D8AC00002C3C0020083C002074
:10484000FC3B00203147000038B5104C207808B1FF
:10485000002038BD0E4D2B6893F8241001F0AEF9FE
:104860002B68DA78FF2A08D06A68094952B101F04A
:1048700001FC01232370002038BD9A6A203282F3A4
:104880000988F1E781E80C00F1E700BF213D002035
:10489000643D00202DE9F041EFF3058414B182203E
:1048A000BDE8F081EFF31484E40704D5DFF800C11C
:1048B00000DFBDE8F081334C237853B1324B1B68E5
:1048C000FF229A70314A0020012310702370BDE846
:1048D000F0812F4B2F48196800F0A0FC10B1852003
:1048E000BDE8F08101F050FB274B21781B68FF22C7
:1048F0009A700029E6D1284A1368002B40D05568E9
:1049000045B12A78002A39D1191D890089B2284673
:1049100000F044FD214B224A1E68156066B35D68B5
:10492000EA1C062A28D8DF68B7B13946194800F0D2
:1049300083FC804600B3291D41EA0721304600234D
:10494000424601F0B7F9054670B94146114800F0FA
:104950009BFC144B1D60B5E7291D30463B463A468B
:1049600001F0A8F9054638B10F4B104A013D53F844
:104970002550AB6A5A63ECE70025EAE70D46C9E724
:104980001D46C7E7203D0020643D0020213D00205A
:10499000D0AC000038300020E8AC0000D8AC0000FB
:1049A0002C3C0020083C0020FC3B0020314700004C
:1049B0004947000010B588B0EFF3058414B1822098
:1049C00008B010BDEFF3148404F00304022C1DD0D2
:1049D000032C14D0012C16D008AC84F309880F4C9A
:1049E0002478E40716D5022484F31488BFF34F8F8C
:1049F000BFF36F8FDFF828C000DF08B010BD074C91
:104A00002478E407F6D5FF2008B010BD034C2478C5
:104A1000E407EFD4032484F31488E7E7C0AC000074
:104A200049480000002833D0F8B5066876B34768D7
:104A3000FB1C062B2AD8C26804460D46BAB11146A3
:104A4000144800F0F9FB064600B36268E16820688C
:104A5000043242EA01212B46324601F02BF904468A
:104A600060B931460B4800F00FFC2046F8BD0B46FC
:104A70003046391D01F01EF9044638B1013C064BA1
:104A8000064A53F82400836A5A63F8BD0020F8BD33
:104A90000020704738300020FC3B002031470000E8
:104AA00008B501F083F818B10138024B53F8200023
:104AB00008BD00BFFC3B002098B1830711D10378EB
:104AC0007BB9C18C10B571B9C0780C4601F07AF988
:104AD000FF280ED01CB12146074800F0D5FB00206E
:104AE00010BD80207047C46AC07801F06BF9FF28C0
:104AF000F0D1812010BD00BF38300020F8B5EFF3B1
:104B000005846CBBEFF31484E40702D41D4C2478B5
:104B10001CB1DFF880C000DFF8BD08B30668FEB145
:104B20004768FB1C062B1BD8C2680D460446CAB159
:104B30001146154800F080FB064688B16268E168BE
:104B40002068043242EA01212B46324601F0B2F8D5
:104B5000044678B931460C4800F096FB2046F8BD73
:104B60000020F8BD0B463046391D01F0A3F804467D
:104B70000028F5D0601E054B054A53F82000836AD3
:104B80005A63F8BD213D002038300020FC3B002056
:104B900031470000254A000010B5EFF305841CB929
:104BA000DFF808C000DF10BD002010BDA14A0000E2
:104BB00010B5EFF305840CB1822010BDDFF804C0FE
:104BC00000DF10BDB94A000098B130B404689CB150
:104BD00043689BB101290DD8094C246864B11C7944
:104BE00044B9012558611C6059711A611D7118463C
:104BF00030BC70470020FBE72046F9E71846F7E78E
:104C0000083C0020820703D110B119B986207047F3
:104C100080207047F8B52B4B1A68002312F1FF363D
:104C200043F1FF3704464FF47A70E0FB01673046EA
:104C30003946FCF729FA2379012B10D0022B0CD12D
:104C4000214D2B684BB19C4237D0194602E094426B
:104C500026D011460A68002AF9D18120F8BD1A4DE4
:104C6000E06002222B6822715BB19968884204D20D
:104C70000EE0916881420DD813461A68401A002A46
:104C8000F7D10022A0602260A3B11C600020F8BD13
:104C90001A460023A06091682260081A9060F3E72A
:104CA00022680A602268002ADED09668A168314432
:104CB0009160D9E72C601846F8BD22682A60134637
:104CC000F1E700BFC4AC0000243D0020830704D1FD
:104CD00030B1436901691868704700200146704788
:104CE000014670472DE9F04F294F3C6883B054B31B
:104CF000A668DFF8A080013EA660B9464FF0000A22
:104D00000EBBD8F8003025683D6023B193F800B0A1
:104D1000BBF1010F02D00420FFF75EFB18460193A0
:104D200000F09EFB019B0028F5D01846214600F0BC
:104D30009BFB6379012B09D084F804B01DB1AE68E8
:104D40002C46002EDDD003B0BDE8F08FD9F800006E
:104D5000E26858B18168914204D90DE099689142A6
:104D60000CD818460368521A002BF7D1C4F800A0DB
:104D7000A26050B10460E1E703463046A260996842
:104D800023608A1A9A600028F4D13C60D6E700BFFD
:104D9000243D00202C3C002030B5EFF3058404BBFB
:104DA000EFF31484E40702D4114C24781CB1DFF82B
:104DB00048C000DF30BD98B10368A3B1436893B128
:104DC00001290CD80B4D2D687DB11D793DB9012409
:104DD00059711C7158611D601A61184630BD20461A
:104DE00030BD002030BD184630BD284630BD00BF64
:104DF000213D0020083C0020C94B000010B5EFF316
:104E000005840CB1822010BDDFF804C000DF10BDA6
:104E1000054C000008B50C4E3568EFF305844FF0E3
:104E2000FF312846002CF8D1DFF820C000DF102821
:104E3000F2D10846DFF818C000DF04460028EBD0A6
:104E40000846A047E8E700BF2C3C002025500000A2
:104E5000CD4C000078B183070DD103785BB90B0C02
:104E60001B0443B910B50B46048BC17898B200F00F
:104E700015FD204610BD4FF00040704778B1830704
:104E80000DD103785BB90B0C1B0443B910B50B466D
:104E9000048BC17898B200F02DFD204610BD4FF074
:104EA000004070472DE9F0414FEA10484FEA0848AA
:104EB000B8F1000F37D10D46044698B180B20029F1
:104EC00037D1012200F0C4FC02284FD0002D0CBFC6
:104ED0000023402300242546184641462A462B46F7
:104EE000BDE8F081002938D04B1C4CD0294B9942A9
:104EF00044D8294B1A684FF6FE714FF47A73501E4E
:104F000003FB0505B5FBF2F58D423AD900224FF6B9
:104F1000FF7000F09DFC02282BD1204B1A6808235B
:104F2000B2F81A80D6E7002186200A460B46BDE873
:104F3000F0814A1C2AD0174B99421CD8164B1E6888
:104F40004FF47A72731E4FF6FE7102FB0533B3FB0A
:104F5000F6F38B42B5D899B2B3E742464FF6FF70ED
:104F600000F076FC0228D8D04346B3E7A0460823D9
:104F7000B0E74023AEE74FF6FE71A2E74FF6FE71B1
:104F8000C4E7A9B2C2E74FF6FF71BFE74FF6FF7162
:104F900097E700BF00093D00C4AC0000643D00205D
:104FA00070B5EFF305851DB9DFF830C000DF70BDC7
:104FB000044678B183070DD103785BB90B0C1B0451
:104FC0000E463BB92346248BD978B0B200F09EFC44
:104FD000204670BD4FF0004070BD0000554E0000EF
:104FE00010B5EFF305841CB9DFF80CC000DF10BD6D
:104FF0004FF0004010BD00007D4E000070B504462B
:10500000EFF3058545B908461146DFF814C000DF07
:1050100084E80700204670BD82230360204670BDEF
:10502000A54E0000F0B5044685B0002836D00378C0
:10503000012B05D0002180200A460B4605B0F0BDAB
:1050400003460C4681B90A4602A900F0B5F90128C9
:105050002DD00024264627461024029D20462946AE
:1050600032463B4605B0F0BD4A1C28D0154A914255
:105070001AD8154A10684FF47A75411E4FF6FE7221
:1050800005FB0414B4FBF0F1914216D9184602A9AD
:1050900000F092F90128DCD1402109E0802021466E
:1050A0002246234605B0F0BD4FF6FE72EEE72146DC
:1050B0000024264627460C46CFE78AB2E6E74FF69D
:1050C000FF72E3E700093D00C4AC00002DE9F047A2
:1050D0008046C08C244B80088A4640D0D3F800908C
:1050E0000746D8F82C6006EB8704630748BF043CEA
:1050F0004FF08073A4F1400544F8043C44F808AC38
:1051000028463822002103F049FAD8F81C3044F828
:10511000203C19F0805FC8F82850C8F830A01AD099
:10512000112F18D9A7F110004008431E0CD02A46B1
:105130004FF0CC31013B42F8041C42F8081DF9D174
:10514000C000C0F1080005442B1F9E423CBF4FF039
:10515000CC3345F8043C054B3360BDE8F0871B6851
:10516000C3F38D079946BCE7B8AC0000A52E5AE200
:1051700090F82520836A12B9203319607047603394
:105180001960704710B490F82540836A2CB9203319
:1051900083E806005DF8044B7047603383E806003F
:1051A0005DF8044B704700BF084B1B68DA0107D558
:1051B000074B1B68DB0703D5064B1B68002B00DB86
:1051C0007047054B01221A70704700BFFCED00E0EC
:1051D000800E00E0000E00E0283D002010B4094CD5
:1051E0002268084B002AFBD0026B1A601A68054C33
:1051F000002AFBD0C37843EA012189B221805DF8FF
:10520000044B70477C0000E003490B68024A002B06
:10521000FBD0C0B2107070477C0000E0034648B17C
:10522000072907D904390022084418605A5010464B
:105230005A6070470120704718B3F9B10B3110B4B0
:10524000036821F0030102E018461B685BB1446863
:105250001A1A121B9142F7D84CB10219035151602E
:1052600002F10803026018465DF8044B704700F134
:10527000080341605DF8044B184670470B4618461A
:1052800070470346FBE700BFD0B1C9B110B4A1F12C
:105290000804A04216D0036823B90DE01A68184626
:1052A00052B113469C42F9D160B151F8083C0360F9
:1052B00000205DF8044B704701205DF8044B7047F7
:1052C0000120704700206060F3E700BF002A30B47F
:1052D0001FDB033222F003020C24BAB113198B42F4
:1052E00014D8044401448D1AA3189D4204604160FF
:1052F000826015D3002100E0034698188542635070
:105300001144F9D20020186030BC7047012030BC35
:10531000704722F00042073222F007021024DCE737
:105320002346EFE7EFF3108372B6026803F0010340
:105330000AB11168016003B962B61046704700BF38
:1053400081420DD3436899420AD2EFF3108372B6BB
:1053500002680A60016013F0010003D162B6704771
:105360000120704700207047426882B110B500F0FC
:105370001DF9044600F034FA012161702046FFF760
:10538000F7FE21460448BDE8104000F0E7B8428827
:1053900001324280704700BF303D002010390023A9
:1053A00089080122C18102704370837043600381C8
:1053B00043818381704700BF70B585890446CDB1B4
:1053C0004389C289181D01339BB254F8200008603C
:1053D0009A42638104BF00236381636813B16378D9
:1053E000022B1FD0EFF3108372B6013DA58162B688
:1053F000002070BD16465AB143685BB1174B19685F
:1054000000F0ACF83046082100F0A8FB012070BD88
:10541000012070BD114A1268426001215360906002
:105420004170EFE7204600F0C1F800210546FFF784
:105430009FFE2389E289E869191D01339BB29A42D4
:1054400044F82100238104BF00232381284600F073
:10545000C7F9284600F044FB002070BD643D0020E1
:10546000C2898089101A704708B500F0CFF9BDE8ED
:10547000084000F085BA00BF426870B50346002AB4
:105480004FD04678022E0D46044625D0032E02D07A
:10549000012E10D070BD0846FFF744FF05460028D6
:1054A000F8D0204600F082F829460446FFF760FE57
:1054B0000123637007E000F079F804462A461021C2
:1054C000FFF760FE6670204600F08AF92146224808
:1054D000BDE8704000F042B800F068F800210546D1
:1054E000FFF746FE2389E9691A1D44F82210EFF3FD
:1054F000108272B6A2890132A28162B6E2890133BA
:105500009BB29A42238104BF0023238101232846B2
:105510006B7000F065F929460F48BDE8704000F057
:105520001DB88489C589AC4210D20089061D43F894
:105530002610EFF3108172B601349C8162B60130FF
:1055400080B2854214BF18811A8170BD0320BDE866
:105550007040FEF741BF00BF303D002030B40578F9
:1055600042688C78013DEDB2F2B19378A34204D247
:105570000FE0987884420ED81A465368002BF8D171
:105580000023022D4B60516000D900228A6030BC9C
:10559000704713460246022D4B60516098BF9960D8
:1055A000F3D88A6030BC70470246E9E70278436866
:1055B000013A59684160022A07D811B10022886077
:1055C0005A6000229A601846704700225A601846B6
:1055D000704700BF034B5A684260002258608260E7
:1055E000704700BF303D0020816830B4002931D0C1
:1055F0000B780A461BB992681378002BFBD04368DE
:105600004B60436803B19960157851688478013D17
:10561000EDB200292ED08B78A34204D20FE09A7805
:1056200094420ED819464B68002BF8D10023022D66
:10563000436048600BD90023836030BC70470B4641
:105640001146022D4360486098BF9860F3D881608E
:1056500030BC70474378012BEFD1074B5A6890421A
:1056600004D01346002AF9D1034ACDE742685A60B4
:10567000014AC9E71146D9E7303D002030B4164C45
:10568000E2681AB3A38A994203D822E0D4689CB195
:105690002246948A23449942F8D8D568C560D060E0
:1056A000C468026104B120615B1A9BB28382918A53
:1056B000CB1A938230BC70479BB2CB1A0021C160D9
:1056C00030BCD060026193828182704713462246CB
:1056D000F3E715462246E1E7483D00202DE9F04179
:1056E000314EF068002856D0B58A013DADB2B58282
:1056F000002D50D1DFF8B8E02C4B9EF80070B3F8C5
:105700000080013FFFB24FF0010C826832B1436864
:10571000536043680BB19A6045608560DEF80420F1
:105720008478002A39D09378A34204D21BE0997878
:105730008C421AD81A465368002BF8D1022F4560C4
:10574000506000D9002243788260042B828A17D0EF
:10575000C36880F801C0DBB11E611349C5600561F3
:10576000EAB91846D1E71346114A4360022F506048
:1057700098BF9860E6D843788260042B828AE7D18C
:10578000C38A80F801C043448382C368002BE3D1FD
:10579000B282F3600361BDE8F081054ACEE78A82F8
:1057A000CB60BDE8F08100BF483D00202C3D0020CB
:1057B000303D002083682BB142685A60426842B194
:1057C00093607047054B5A68904203D01346002AF5
:1057D000F9D1704742685A60704700BF303D0020E1
:1057E000036973B1C268DA60C16859B130B4828AA2
:1057F0009D8A00242A449A820B61C46030BC002335
:1058000003617047998200230361704730B40F4BE6
:10581000DC78EFF3108272B69A78944208D9551C5E
:105820001A789D70551CAC4214BFEDB200251D7056
:1058300062B6944205D903EBC20330BC586099604C
:105840007047022030BCFEF7C7BD00BF783B002088
:1058500038B5114B6AB11A68138B30EA030413D0C0
:1058600006250C4650832946204600F077F9012092
:1058700038BD1A68138B10EA03040AD023EA00002B
:1058800010835483022038BD23EA000010830220D5
:1058900038BD0525E5E700BF643D00200139144B04
:1058A00010B553F8214044B1238B6278618B1843C3
:1058B000062A208318D0052A00D010BD10EA010363
:1058C000FBD0638320EA010020832046FFF788FF96
:1058D000012320466370628B0821FFF753FC2046AA
:1058E000BDE8104000F0FCB831EA0003EAD010BD7A
:1058F000FC3B00200139044B53F821301BB11A8BBB
:1059000022EA000018837047FC3B002008B50139EB
:10591000064B53F821303BB101461846FFF776FF9E
:10592000BDE8084000F02CB808BD00BFFC3B0020DB
:1059300038B5038B4278458B1943062A018319D069
:10594000052A00D038BD11EA0503FBD0438321EAC4
:10595000050104460183FFF743FF012320466370DE
:10596000628B0821FFF70EFC21460448BDE8384051
:10597000FFF7F4BD35EA0103E9D038BD303D002022
:10598000054B1A7812B101229A707047034B4FF001
:1059900080521A60704700BFDC08002004ED00E070
:1059A00038B51A4B1A4D186801234370FFF712FEE1
:1059B000AB786C7893B921E0012A1AD0FFF7D4FCB8
:1059C000EB7801349C4208BF0024EFF3108372B6D9
:1059D000AB78013BDBB2AB7062B67BB105EBC401C7
:1059E0004B681A781846002AE6D10989FFF7A0FF0C
:1059F000E6E789681846FFF73FFDE1E705486C7068
:105A0000FFF7D4FDBDE8384000F058B8643D0020F1
:105A1000783B0020303D00200A4A0B490B480C4BD4
:105A200010B414680C600B4A00240721046019604C
:105A300013685DF8044B43F07F434FF0FF30136071
:105A4000704700BFBCAC000014E000E018E000E0CC
:105A500010E000E020ED00E0704700BF08B50B4B00
:105A6000186801234370FFF7B5FDFEF7D1FC084A23
:105A7000136801331360FFF731FEFFF733F9054870
:105A8000FFF794FDBDE8084000F018B8643D002021
:105A90002C3D0020303D0020064B1B68DA6A9B6AD3
:105AA0009A4203D81268044B9A4202D00120FEF7B2
:105AB00093BC7047643D0020A52E5AE2064A074B6E
:105AC00012785860022141702AB11B68984202D0B6
:105AD000C078FFF799BB7047283D0020643D002047
:105AE00038B508B31A4D82780446286883789A42FC
:105AF0000BD9FFF76FFD174A2B681278012002219E
:105B000058706C60617042B938BD012363702146E2
:105B10001148BDE83840FFF721BD9C42F4D0E07841
:105B2000BDE83840FFF770BB0B48FFF73FFD094A5F
:105B3000074B1278586002214170002AE4D01B689C
:105B40008342E1D0C078BDE83840FFF75DBB00BFBD
:105B5000643D0020283D0020303D0020F8B138B5DC
:105B60004FF6FF7398420C460D4D03D0014628684E
:105B7000FFF784FD2B680B485C70FFF717FD0A4B9D
:105B800068601B7806490222427003B938BD0B6871
:105B90009842FBD0C078BDE83840FFF735BB70476E
:105BA000643D0020303D0020283D0020024B186855
:105BB00000B1C078704700BF643D002070B558B98F
:105BC000374D2B68997083F82410364C62689278B0
:105BD0008A4236D8002070BD334B1B88984201D9C9
:105BE000FF2070BD0138314B53F82040002CF7D016
:105BF0002B4DA1702B6884F824109C42E5D02046E0
:105C0000FFF7F2FC6678012EE4D12648FFF7CEFCC0
:105C10000446002836D02868A27883789A422AD988
:105C2000FFF7D8FC224A2B6812785E7002216C6064
:105C30006170002ACED09C42CCD0E078FFF7E4FA25
:105C4000C8E719462046FFF789FC2B68144E01224D
:105C50005A702046FFF7AAFC154B68601B78022299
:105C60004270002BB6D033688342B3D0C078FFF7C0
:105C7000CBFA002070BD667021460A48FFF76EFC23
:105C8000002070BD0748FFF791FC094B68601B7846
:105C900002224270002B9DD02B689842E6D199E7F2
:105CA000643D0020303D0020B4AC0000FC3B0020EF
:105CB000283D00202DE9F04111F0FF0F0C4606466B
:105CC000394890461F4608BF0134FFF72BFB0546B5
:105CD00000282ED00020C4F30F210123E4B2C5F820
:105CE0002C80EF61E984AC7085F8244028706860EE
:105CF000A860E86028612862A882E8822883688317
:105D000085F825006B70B9B128463146FFF7DEF9FA
:105D1000264B188868B1264E3368002B41D0324696
:105D2000012303E052F8041F59B123465C1C84424E
